{"contracts/AegisRegistry.sol":{"AegisRegistry":{"abi":[{"inputs":[{"internalType":"uint256","name":"_registrationFee","type":"uint256"},{"internalType":"uint256","name":"_maxAgents","type":"uint256"}],"stateMutability":"nonpayable","type":"constructor"},{"inputs":[],"name":"ERC721EnumerableForbiddenBatchMint","type":"error"},{"inputs":[{"internalType":"address","name":"sender","type":"address"},{"internalType":"uint256","name":"tokenId","type":"uint256"},{"internalType":"address","name":"owner","type":"address"}],"name":"ERC721IncorrectOwner","type":"error"},{"inputs":[{"internalType":"address","name":"operator","type":"address"},{"internalType":"uint256","name":"tokenId","type":"uint256"}],"name":"ERC721InsufficientApproval","type":"error"},{"inputs":[{"internalType":"address","name":"approver","type":"address"}],"name":"ERC721InvalidApprover","type":"error"},{"inputs":[{"internalType":"address","name":"operator","type":"address"}],"name":"ERC721InvalidOperator","type":"error"},{"inputs":[{"internalType":"address","name":"owner","type":"address"}],"name":"ERC721InvalidOwner","type":"error"},{"inputs":[{"internalType":"address","name":"receiver","type":"address"}],"name":"ERC721InvalidReceiver","type":"error"},{"inputs":[{"internalType":"address","name":"sender","type":"address"}],"name":"ERC721InvalidSender","type":"error"},{"inputs":[{"internalType":"uint256","name":"tokenId","type":"uint256"}],"name":"ERC721NonexistentToken","type":"error"},{"inputs":[{"internalType":"address","name":"owner","type":"address"},{"internalType":"uint256","name":"index","type":"uint256"}],"name":"ERC721OutOfBoundsIndex","type":"error"},{"inputs":[{"internalType":"address","name":"owner","type":"address"}],"name":"OwnableInvalidOwner","type":"error"},{"inputs":[{"internalType":"address","name":"account","type":"address"}],"name":"OwnableUnauthorizedAccount","type":"error"},{"inputs":[],"name":"ReentrancyGuardReentrantCall","type":"error"},{"anonymous":false,"inputs":[{"indexed":true,"internalType":"uint256","name":"agentId","type":"uint256"},{"indexed":false,"internalType":"string","name":"newURI","type":"string"}],"name":"AgentMetadataUpdated","type":"event"},{"anonymous":false,"inputs":[{"indexed":true,"internalType":"uint256","name":"agentId","type":"uint256"},{"indexed":true,"internalType":"address","name":"operator","type":"address"},{"indexed":false,"internalType":"string","name":"name","type":"string"},{"indexed":false,"internalType":"enum AegisRegistry.AgentTier","name":"tier","type":"uint8"},{"indexed":false,"internalType":"uint256","name":"timestamp","type":"uint256"}],"name":"AgentRegistered","type":"event"},{"anonymous":false,"inputs":[{"indexed":true,"internalType":"uint256","name":"agentId","type":"uint256"},{"indexed":false,"internalType":"uint256","name":"totalDecisions","type":"uint256"},{"indexed":false,"internalType":"uint256","name":"successfulActions","type":"uint256"},{"indexed":false,"internalType":"uint256","name":"totalValueProtected","type":"uint256"}],"name":"AgentStatsUpdated","type":"event"},{"anonymous":false,"inputs":[{"indexed":true,"internalType":"uint256","name":"agentId","type":"uint256"},{"indexed":false,"internalType":"enum AegisRegistry.AgentStatus","name":"oldStatus","type":"uint8"},{"indexed":false,"internalType":"enum AegisRegistry.AgentStatus","name":"newStatus","type":"uint8"}],"name":"AgentStatusChanged","type":"event"},{"anonymous":false,"inputs":[{"indexed":true,"internalType":"uint256","name":"agentId","type":"uint256"},{"indexed":false,"internalType":"enum AegisRegistry.AgentTier","name":"oldTier","type":"uint8"},{"indexed":false,"internalType":"enum AegisRegistry.AgentTier","name":"newTier","type":"uint8"}],"name":"AgentTierUpgraded","type":"event"},{"anonymous":false,"inputs":[{"indexed":true,"internalType":"address","name":"owner","type":"address"},{"indexed":true,"internalType":"address","name":"approved","type":"address"},{"indexed":true,"internalType":"uint256","name":"tokenId","type":"uint256"}],"name":"Approval","type":"event"},{"anonymous":false,"inputs":[{"indexed":true,"internalType":"address","name":"owner","type":"address"},{"indexed":true,"internalType":"address","name":"operator","type":"address"},{"indexed":false,"internalType":"bool","name":"approved","type":"bool"}],"name":"ApprovalForAll","type":"event"},{"anonymous":false,"inputs":[{"indexed":true,"internalType":"address","name":"previousOwner","type":"address"},{"indexed":true,"internalType":"address","name":"newOwner","type":"address"}],"name":"OwnershipTransferred","type":"event"},{"anonymous":false,"inputs":[{"indexed":true,"internalType":"uint256","name":"agentId","type":"uint256"},{"indexed":true,"internalType":"address","name":"reviewer","type":"address"},{"indexed":false,"internalType":"uint8","name":"score","type":"uint8"},{"indexed":false,"internalType":"uint256","name":"timestamp","type":"uint256"}],"name":"ReputationFeedback","type":"event"},{"anonymous":false,"inputs":[{"indexed":true,"internalType":"address","name":"from","type":"address"},{"indexed":true,"internalType":"address","name":"to","type":"address"},{"indexed":true,"internalType":"uint256","name":"tokenId","type":"uint256"}],"name":"Transfer","type":"event"},{"anonymous":false,"inputs":[{"indexed":true,"internalType":"address","name":"vault","type":"address"},{"indexed":false,"internalType":"bool","name":"authorized","type":"bool"}],"name":"VaultAuthorized","type":"event"},{"inputs":[{"internalType":"uint256","name":"","type":"uint256"}],"name":"agents","outputs":[{"internalType":"string","name":"name","type":"string"},{"internalType":"string","name":"agentURI","type":"string"},{"internalType":"address","name":"operator","type":"address"},{"internalType":"uint256","name":"registeredAt","type":"uint256"},{"internalType":"uint256","name":"totalDecisions","type":"uint256"},{"internalType":"uint256","name":"successfulActions","type":"uint256"},{"internalType":"uint256","name":"totalValueProtected","type":"uint256"},{"internalType":"enum AegisRegistry.AgentStatus","name":"status","type":"uint8"},{"internalType":"enum AegisRegistry.AgentTier","name":"tier","type":"uint8"}],"stateMutability":"view","type":"function"},{"inputs":[{"internalType":"address","name":"to","type":"address"},{"internalType":"uint256","name":"tokenId","type":"uint256"}],"name":"approve","outputs":[],"stateMutability":"nonpayable","type":"function"},{"inputs":[{"internalType":"address","name":"","type":"address"}],"name":"authorizedVaults","outputs":[{"internalType":"bool","name":"","type":"bool"}],"stateMutability":"view","type":"function"},{"inputs":[{"internalType":"address","name":"owner","type":"address"}],"name":"balanceOf","outputs":[{"internalType":"uint256","name":"","type":"uint256"}],"stateMutability":"view","type":"function"},{"inputs":[{"internalType":"uint256","name":"agentId","type":"uint256"}],"name":"getAgent","outputs":[{"components":[{"internalType":"string","name":"name","type":"string"},{"internalType":"string","name":"agentURI","type":"string"},{"internalType":"address","name":"operator","type":"address"},{"internalType":"uint256","name":"registeredAt","type":"uint256"},{"internalType":"uint256","name":"totalDecisions","type":"uint256"},{"internalType":"uint256","name":"successfulActions","type":"uint256"},{"internalType":"uint256","name":"totalValueProtected","type":"uint256"},{"internalType":"enum AegisRegistry.AgentStatus","name":"status","type":"uint8"},{"internalType":"enum AegisRegistry.AgentTier","name":"tier","type":"uint8"}],"internalType":"struct AegisRegistry.AgentInfo","name":"info","type":"tuple"}],"stateMutability":"view","type":"function"},{"inputs":[],"name":"getAgentCount","outputs":[{"internalType":"uint256","name":"count","type":"uint256"}],"stateMutability":"view","type":"function"},{"inputs":[{"internalType":"uint256","name":"tokenId","type":"uint256"}],"name":"getApproved","outputs":[{"internalType":"address","name":"","type":"address"}],"stateMutability":"view","type":"function"},{"inputs":[{"internalType":"uint256","name":"agentId","type":"uint256"}],"name":"getReputationCount","outputs":[{"internalType":"uint256","name":"count","type":"uint256"}],"stateMutability":"view","type":"function"},{"inputs":[{"internalType":"uint256","name":"agentId","type":"uint256"}],"name":"getReputationScore","outputs":[{"internalType":"uint256","name":"avgScore","type":"uint256"}],"stateMutability":"view","type":"function"},{"inputs":[{"internalType":"uint256","name":"agentId","type":"uint256"}],"name":"getSuccessRate","outputs":[{"internalType":"uint256","name":"rate","type":"uint256"}],"stateMutability":"view","type":"function"},{"inputs":[{"internalType":"uint256","name":"agentId","type":"uint256"},{"internalType":"uint8","name":"score","type":"uint8"},{"internalType":"string","name":"comment","type":"string"}],"name":"giveFeedback","outputs":[],"stateMutability":"nonpayable","type":"function"},{"inputs":[{"internalType":"address","name":"","type":"address"}],"name":"hasAgent","outputs":[{"internalType":"bool","name":"","type":"bool"}],"stateMutability":"view","type":"function"},{"inputs":[{"internalType":"uint256","name":"agentId","type":"uint256"}],"name":"isAgentActive","outputs":[{"internalType":"bool","name":"isActive","type":"bool"}],"stateMutability":"view","type":"function"},{"inputs":[{"internalType":"address","name":"owner","type":"address"},{"internalType":"address","name":"operator","type":"address"}],"name":"isApprovedForAll","outputs":[{"internalType":"bool","name":"","type":"bool"}],"stateMutability":"view","type":"function"},{"inputs":[],"name":"maxAgents","outputs":[{"internalType":"uint256","name":"","type":"uint256"}],"stateMutability":"view","type":"function"},{"inputs":[],"name":"name","outputs":[{"internalType":"string","name":"","type":"string"}],"stateMutability":"view","type":"function"},{"inputs":[{"internalType":"address","name":"","type":"address"}],"name":"operatorToAgent","outputs":[{"internalType":"uint256","name":"","type":"uint256"}],"stateMutability":"view","type":"function"},{"inputs":[],"name":"owner","outputs":[{"internalType":"address","name":"","type":"address"}],"stateMutability":"view","type":"function"},{"inputs":[{"internalType":"uint256","name":"tokenId","type":"uint256"}],"name":"ownerOf","outputs":[{"internalType":"address","name":"","type":"address"}],"stateMutability":"view","type":"function"},{"inputs":[{"internalType":"uint256","name":"agentId","type":"uint256"},{"internalType":"bool","name":"wasSuccessful","type":"bool"},{"internalType":"uint256","name":"valueProtected","type":"uint256"}],"name":"recordAgentAction","outputs":[],"stateMutability":"nonpayable","type":"function"},{"inputs":[{"internalType":"string","name":"name","type":"string"},{"internalType":"string","name":"agentURI","type":"string"},{"internalType":"enum AegisRegistry.AgentTier","name":"tier","type":"uint8"}],"name":"registerAgent","outputs":[{"internalType":"uint256","name":"agentId","type":"uint256"}],"stateMutability":"payable","type":"function"},{"inputs":[],"name":"registrationFee","outputs":[{"internalType":"uint256","name":"","type":"uint256"}],"stateMutability":"view","type":"function"},{"inputs":[],"name":"renounceOwnership","outputs":[],"stateMutability":"nonpayable","type":"function"},{"inputs":[{"internalType":"uint256","name":"","type":"uint256"},{"internalType":"uint256","name":"","type":"uint256"}],"name":"reputationLog","outputs":[{"internalType":"address","name":"reviewer","type":"address"},{"internalType":"uint8","name":"score","type":"uint8"},{"internalType":"string","name":"comment","type":"string"},{"internalType":"uint256","name":"timestamp","type":"uint256"}],"stateMutability":"view","type":"function"},{"inputs":[{"internalType":"address","name":"from","type":"address"},{"internalType":"address","name":"to","type":"address"},{"internalType":"uint256","name":"tokenId","type":"uint256"}],"name":"safeTransferFrom","outputs":[],"stateMutability":"nonpayable","type":"function"},{"inputs":[{"internalType":"address","name":"from","type":"address"},{"internalType":"address","name":"to","type":"address"},{"internalType":"uint256","name":"tokenId","type":"uint256"},{"internalType":"bytes","name":"data","type":"bytes"}],"name":"safeTransferFrom","outputs":[],"stateMutability":"nonpayable","type":"function"},{"inputs":[{"internalType":"uint256","name":"agentId","type":"uint256"},{"internalType":"enum AegisRegistry.AgentStatus","name":"newStatus","type":"uint8"}],"name":"setAgentStatus","outputs":[],"stateMutability":"nonpayable","type":"function"},{"inputs":[{"internalType":"address","name":"operator","type":"address"},{"internalType":"bool","name":"approved","type":"bool"}],"name":"setApprovalForAll","outputs":[],"stateMutability":"nonpayable","type":"function"},{"inputs":[{"internalType":"uint256","name":"newFee","type":"uint256"}],"name":"setRegistrationFee","outputs":[],"stateMutability":"nonpayable","type":"function"},{"inputs":[{"internalType":"address","name":"vault","type":"address"},{"internalType":"bool","name":"authorized","type":"bool"}],"name":"setVaultAuthorization","outputs":[],"stateMutability":"nonpayable","type":"function"},{"inputs":[{"internalType":"bytes4","name":"interfaceId","type":"bytes4"}],"name":"supportsInterface","outputs":[{"internalType":"bool","name":"","type":"bool"}],"stateMutability":"view","type":"function"},{"inputs":[],"name":"symbol","outputs":[{"internalType":"string","name":"","type":"string"}],"stateMutability":"view","type":"function"},{"inputs":[{"internalType":"uint256","name":"index","type":"uint256"}],"name":"tokenByIndex","outputs":[{"internalType":"uint256","name":"","type":"uint256"}],"stateMutability":"view","type":"function"},{"inputs":[{"internalType":"address","name":"owner","type":"address"},{"internalType":"uint256","name":"index","type":"uint256"}],"name":"tokenOfOwnerByIndex","outputs":[{"internalType":"uint256","name":"","type":"uint256"}],"stateMutability":"view","type":"function"},{"inputs":[{"internalType":"uint256","name":"tokenId","type":"uint256"}],"name":"tokenURI","outputs":[{"internalType":"string","name":"","type":"string"}],"stateMutability":"view","type":"function"},{"inputs":[],"name":"totalSupply","outputs":[{"internalType":"uint256","name":"","type":"uint256"}],"stateMutability":"view","type":"function"},{"inputs":[{"internalType":"address","name":"from","type":"address"},{"internalType":"address","name":"to","type":"address"},{"internalType":"uint256","name":"tokenId","type":"uint256"}],"name":"transferFrom","outputs":[],"stateMutability":"nonpayable","type":"function"},{"inputs":[{"internalType":"address","name":"newOwner","type":"address"}],"name":"transferOwnership","outputs":[],"stateMutability":"nonpayable","type":"function"},{"inputs":[{"internalType":"uint256","name":"agentId","type":"uint256"},{"internalType":"string","name":"newURI","type":"string"}],"name":"updateAgentURI","outputs":[],"stateMutability":"nonpayable","type":"function"},{"inputs":[{"internalType":"uint256","name":"agentId","type":"uint256"},{"internalType":"enum AegisRegistry.AgentTier","name":"newTier","type":"uint8"}],"name":"upgradeAgentTier","outputs":[],"stateMutability":"nonpayable","type":"function"},{"inputs":[],"name":"withdrawFees","outputs":[],"stateMutability":"nonpayable","type":"function"}],"evm":{"bytecode":{"linkReferences":{},"object":"608034620003d057601f1990601f906001600160401b039062002ea13881900384810186168301919084831184841017620003ba578084926040948552833981010312620003d057805191602080920151936200005b620003d5565b92601484527f416567697320477561726469616e204167656e74000000000000000000000000818501526200008f620003d5565b906005825264414547495360d81b81830152845197848911620003ba576000988954966001978881811c91168015620003af575b858210146200039b5790818784931162000348575b508490878311600114620002e7578c92620002db575b5050600019600383901b1c191690871b1789555b8251948511620002c75785548681811c91168015620002bc575b83821014620002a8579081858796959493116200024f575b5081938511600114620001ea5750508792620001de575b5050600019600383901b1c191690821b1781555b3315620001c557600a8054336001600160a01b031982168117909255604051956001600160a01b03909116907f8be0079c531659141344cd1fd0a4f28419497f9722a3daafe3b4186f6b6457e09080a3600b55601255601355612aab9081620003f68239f35b604051631e4fbdf760e01b815260048101859052602490fd5b0151905038806200014b565b86959392919316858a52838a20938a905b8282106200023557505084116200021b575b505050811b0181556200015f565b015160001960f88460031b161c191690553880806200020d565b8484015186558897909501949384019390810190620001fb565b909192939450868a52828a208580880160051c8201928589106200029e575b9188978a9297969594930160051c01915b8281106200028f57505062000134565b8c81558897508991016200027f565b925081926200026e565b634e487b7160e01b8a52602260045260248afd5b90607f16906200011c565b634e487b7160e01b89526041600452602489fd5b015190503880620000ee565b908c91858b9516838052878420935b8882821062000331575050841162000317575b505050811b01895562000102565b015160001960f88460031b161c1916905538808062000309565b8385015186558d97909501949384019301620002f6565b9091508b8052848c208780850160051c82019287861062000391575b918b91869594930160051c01915b82811062000382575050620000d8565b8e81558594508b910162000372565b9250819262000364565b634e487b7160e01b8c52602260045260248cfd5b90607f1690620000c3565b634e487b7160e01b600052604160045260246000fd5b600080fd5b60408051919082016001600160401b03811183821017620003ba5760405256fe608080604052600436101561001357600080fd5b60e0600035811c91826301ffc9a7146120395750816306fdde0314611f8e578163081812fc14611f50578163095ea7b314611e695781630a34d63714611e4b57816314c44e0914611e2d57816318160ddd14611e0f57816323b872dd14611df85781632de5aaf714611c6c5781632f745c5914611be8578163392d2d8e14611b9e578163393b851614611b5f57816342842e0e14611b31578163476343ee14611a765781634aa1124814611a375781634f6ccce7146119e1578163513856c81461191a578163521ba2cb146118245781635d0a4782146117195781636352211e146116e9578163655914ab146113ef5781636b5958221461124e57816370a082311461122b578163715018a6146111ce5781637cc0c9bd146111a25781637f5b168014611168578163839fae66146110e15781638a650841146110b65781638da5cb5b1461108d57816391cab63e1461106f57816395d89b4114610f8c578163a22cb46514610ee1578163a970c8e01461064457508063b88d4fde146105d6578063bd5bcb0a146105a3578063c320c72714610582578063c6fe8e3114610422578063c87b56dd14610395578063e985e9c51461033f578063f2fde38b146102b15763fee61032146101e457600080fd5b346102ac5760403660031901126102ac576101fd6120fe565b6102056122b3565b9061020e612925565b6001600160a01b031690811561026f5760207f18f47f52423fcea7fa18e18e69f46b50562f0a8090b20f6c3ddf12ba6ff84feb9183600052601182526102648160406000209060ff801983541691151516179055565b6040519015158152a2005b60405162461bcd60e51b8152602060048201526015602482015274496e76616c6964207661756c74206164647265737360581b6044820152606490fd5b600080fd5b346102ac5760203660031901126102ac576102ca6120fe565b6102d2612925565b6001600160a01b0390811690811561032657600a54826bffffffffffffffffffffffff60a01b821617600a55167f8be0079c531659141344cd1fd0a4f28419497f9722a3daafe3b4186f6b6457e0600080a3005b604051631e4fbdf760e01b815260006004820152602490fd5b346102ac5760403660031901126102ac576103586120fe565b610360612114565b9060018060a01b03809116600052600560205260406000209116600052602052602060ff604060002054166040519015158152f35b346102ac5760203660031901126102ac57600435600c548110156103e657600052600d6020526103e26103ce600160406000200161220e565b6040519182916020835260208301906120be565b0390f35b60405162461bcd60e51b8152602060048201526014602482015273151bdad95b88191bd95cc81b9bdd08195e1a5cdd60621b6044820152606490fd5b346102ac5760403660031901126102ac5760043560243560038110156102ac5781600052602090600d825261046860018060a01b0360026040600020015416331461274e565b610475600c548410612607565b82600052600d825260ff6007604060002001541691600383101561056c5781831461053557600283146104fa57916104f76040927faee32b7c15a5e7eb6c9fe661bd68a482005da78a005e52c4ef956a914fdb39469486600052600d81526104e3826007876000200161284e565b6104ef8551809561215f565b83019061215f565ba2005b6064906040519062461bcd60e51b8252600482015260146024820152731059d95b9d08191958dbdb5b5a5cdcda5bdb995960621b6044820152fd5b6064906040519062461bcd60e51b82526004820152601060248201526f14dd185d1d5cc81d5b98da185b99d95960821b6044820152fd5b634e487b7160e01b600052602160045260246000fd5b346102ac5760203660031901126102ac5761059b612925565b600435601255005b346102ac5760203660031901126102ac5760206105ce6004356105c9600c548210612607565b612866565b604051908152f35b346102ac5760803660031901126102ac576105ef6120fe565b6105f7612114565b906044356064359267ffffffffffffffff84116102ac57366023850112156102ac5761063061064294369060248160040135910161233e565b9261063c838383612375565b33612951565b005b60603660031901126102ac5760043567ffffffffffffffff81116102ac576106709036906004016122c2565b909160243567ffffffffffffffff81116102ac576106929036906004016122c2565b600460449592953510156102ac576002600b5414610ecf576002600b556012543410610e8a5733600052601060205260ff60406000205416610e4557600c5494601354861015610e0b5784151580610e00575b15610dc55761071b906106f7876126dc565b600c5560405192610707846121b3565b61071236888761233e565b8452369161233e565b602082015233604082015242606082015260006080820152600060a0820152600060c0820152600083820152610757604435610100830161264a565b84600052600d602052604060002092815180519067ffffffffffffffff8211610bf35761078e826107888854612179565b886126f8565b602090601f8311600114610d5d576107bf929160009183610ce0575b50508160011b916000199060031b1c19161790565b84555b602082015180519067ffffffffffffffff8211610bf3576107f3826107ea6001890154612179565b600189016126f8565b602090601f8311600114610ceb57610823929160009183610ce05750508160011b916000199060031b1c19161790565b60018501555b6002840191600760018060a01b039586604084015116946bffffffffffffffffffffffff60a01b9586825416179055606083015160038201556080830151600482015560a0830151600582015560c08301516006820155019181015190600382101561056c5761089c610100928461284e565b0151600481101561056c576108b0916126bd565b33600052600f6020528460406000205560106020526040600020600160ff19825416179055604051926108e2846121d0565b600084523315610cc75785600052600260205260406000205416801580159283610c90575b33600052600360205260406000206001815401905587600052600260205260406000209033908254161790558633837fddf252ad1be2c89b69c2b068fc378daa952ba7f163c4a11628f55a4df523b3ef600080a415610c095760085486600052600960205280604060002055600160401b811015610bf357866109938260016109ac9401600855612686565b90919082549060031b91821b91600019901b1916179055565b3303610bae575b610b95578391333b610aa0575b506109f87fad4f4fe2e3781f239a4fd5fc6b57837f9b422262490c3e9a772135bdda8c6d06916040519460608652606086019161278f565b92610a086020820160443561216c565b4260408201528033940390a3601254803411610a2f575b6020826001600b55604051908152f35b3403348111610a8a57600080808093335af1610a49612656565b5015610a555781610a1f565b60405162461bcd60e51b815260206004820152600d60248201526c1499599d5b990819985a5b1959609a1b6044820152606490fd5b634e487b7160e01b600052601160045260246000fd5b90915060405160208180610add630a85bd0160e11b95868352336004840152600060248401528960448401526080606484015260848301906120be565b03816000335af160009181610b50575b50610b1f57610afa612656565b80519081610b1a57604051633250574960e11b8152336004820152602490fd5b602001fd5b6001600160e01b03191603610b385782906109f86109c0565b604051633250574960e11b8152336004820152602490fd5b9091506020813d602011610b8d575b81610b6c602093836121ec565b810103126102ac57516001600160e01b0319811681036102ac579086610aed565b3d9150610b5f565b6040516339e3563760e11b815260006004820152602490fd5b610bb7336127b0565b6000198101908111610a8a57336000526006602052604060002081600052602052856040600020558560005260076020526040600020556109b3565b634e487b7160e01b600052604160045260246000fd5b3381146109ac57610c19816127b0565b86600052600760205260406000205490826000526006602052604060002091818103610c63575b5087600052600760205260006040812055600052602052600060408120556109ac565b81600052826020526040600020548160005280604060002055600052600760205260406000205588610c40565b600088815260046020526040902080546001600160a01b031916905582600052600360205260406000206000198154019055610907565b604051633250574960e11b815260006004820152602490fd5b0151905089806107aa565b9190600187016000526020600020906000935b601f1984168510610d42576001945083601f19811610610d29575b505050811b016001850155610829565b015160001960f88460031b161c19169055888080610d19565b81810151835560209485019460019093019290910190610cfe565b90601f198316918760005260206000209260005b818110610dad5750908460019594939210610d94575b505050811b0184556107c2565b015160001960f88460031b161c19169055888080610d87565b92936020600181928786015181550195019301610d71565b60405162461bcd60e51b8152602060048201526013602482015272092dcecc2d8d2c840dcc2daca40d8cadccee8d606b1b6044820152606490fd5b5060408511156106e5565b60405162461bcd60e51b815260206004820152601260248201527113585e081859d95b9d1cc81c995858da195960721b6044820152606490fd5b60405162461bcd60e51b815260206004820152601d60248201527f4f70657261746f7220616c72656164792068617320616e206167656e740000006044820152606490fd5b60405162461bcd60e51b815260206004820152601d60248201527f496e73756666696369656e7420726567697374726174696f6e206665650000006044820152606490fd5b604051633ee5aeb560e01b8152600490fd5b346102ac5760403660031901126102ac57610efa6120fe565b610f026122b3565b6001600160a01b03909116908115610f7357336000526005602052604060002082600052602052610f438160406000209060ff801983541691151516179055565b60405190151581527f17307eab39ab6107e8899845ad3d59bd9653f200f220920489ca2b5937696c3160203392a3005b604051630b61174360e31b815260048101839052602490fd5b346102ac5760003660031901126102ac57604051600060018260015492610fb284612179565b928383526020948560018216918260001461104f575050600114610ff2575b50610fde925003836121ec565b6103e26040519282849384528301906120be565b84915060016000527fb10e2d527612073b26eecdfd717e6a320cf44b4afac2b0732d9fcbe2b7fa0cf6906000915b858310611037575050610fde935082010185610fd1565b80548389018501528794508693909201918101611020565b60ff191685820152610fde95151560051b8501019250879150610fd19050565b346102ac5760003660031901126102ac576020600c54604051908152f35b346102ac5760003660031901126102ac57600a546040516001600160a01b039091168152602090f35b346102ac5760203660031901126102ac5760206105ce6004356110dc600c548210612607565b612809565b346102ac5760403660031901126102ac57602435600435600052600e602052604060002080548210156102ac5760ff9161111a916122f0565b5080549061115e600261112f6001840161220e565b9201549160405194859460018060a01b038116865260a01c1660208501526080604085015260808401906120be565b9060608301520390f35b346102ac5760203660031901126102ac576001600160a01b036111896120fe565b16600052600f6020526020604060002054604051908152f35b346102ac5760203660031901126102ac57600435600052600e6020526020604060002054604051908152f35b346102ac5760003660031901126102ac576111e7612925565b600a80546001600160a01b031981169091556000906001600160a01b03167f8be0079c531659141344cd1fd0a4f28419497f9722a3daafe3b4186f6b6457e08280a3005b346102ac5760203660031901126102ac5760206105ce6112496120fe565b6127b0565b346102ac5760403660031901126102ac5760043567ffffffffffffffff6024358181116102ac576112839036906004016122c2565b919083600052602091600d83526112ab60018060a01b0360026040600020015416331461274e565b6112b8600c548610612607565b84600052600d8352600180604060002001918511610bf3576112e4856112de8454612179565b846126f8565b600090601f86116001146113615750916113519161133d86807f859fac2fc059a2fa38efe7236e1c16278c1519298d62dd05582ff7fa392a1045989796600091611356575b508160011b916000199060031b1c19161790565b90555b60405193838594855284019161278f565b0390a2005b90508401358a611329565b90601f1986168360005285600020926000905b8282106113d8575050916113519391877f859fac2fc059a2fa38efe7236e1c16278c1519298d62dd05582ff7fa392a104598979694106113be575b5050600185811b019055611340565b830135600019600388901b60f8161c1916905587806113af565b868401358555938401939287019290870190611374565b346102ac5760603660031901126102ac5760043560249081359060ff82168092036102ac5767ffffffffffffffff6044358181116102ac576114359036906004016122c2565b611442600c548510612607565b60019586861015806116de575b156116a65784600052602093600d855260018060a01b0391826002604060002001541633146116635786600052600e865260406000209360405195608087018781108582111761164e57906114b291604052338852888801928b8452369161233e565b93604087019485526060870195428752805490600160401b82101561163957906114e0918d820181556122f0565b9790976116245751875492516001600160a81b031990931691161760a09190911b60ff60a01b16178555915180518986019390928311611610575061152f826115298554612179565b856126f8565b8598601f83116001146115ab5750908060029596979899611566936000926115a05750508160011b916000199060031b1c19161790565b90555b5191015560405192835242908301527f521f7611175a9fdae7fa5d66cdf61d0556302d1845f8fed36ee72150778e2d4960403393a3005b015190508a806107aa565b9190601f1982169984600052876000209160005b8c81106115fb575083600298999a9b9c106115e2575b505050811b019055611569565b015160001960f88460031b161c191690558980806115d5565b818301518455928501929189019189016115bf565b634e487b7160e01b60009081526041600452fd5b83634e487b7160e01b60005260006004526000fd5b84634e487b7160e01b60005260416004526000fd5b83634e487b7160e01b60005260416004526000fd5b8560176064926040519262461bcd60e51b845260048401528201527f43616e6e6f7420726576696577206f776e206167656e740000000000000000006044820152fd5b60649060116040519162461bcd60e51b8352602060048401528201527053636f7265206d75737420626520312d3560781b6044820152fd5b50600586111561144f565b346102ac5760203660031901126102ac5760206117076004356128ea565b6040516001600160a01b039091168152f35b346102ac5760603660031901126102ac576004356117356122b3565b33600052601160205260ff60406000205416156117e85760607fe2b86be09edf0c2a3958669b7b3dc7ab7b735a2c55bb5ad1539e2400dc0ee7679161177d600c548510612607565b83600052600d6020526040600020600481019161179a83546126dc565b8093556117c0575b600660058201549101549060405192835260208301526040820152a2005b600581016117ce81546126dc565b9055600681016117e160443582546126eb565b90556117a2565b60405162461bcd60e51b8152602060048201526014602482015273139bdd08185d5d1a1bdc9a5e9959081d985d5b1d60621b6044820152606490fd5b346102ac5760403660031901126102ac5760043560243560048110156102ac5761184c612925565b611859600c548310612607565b81600052600d60205260ff60076040600020015460081c1690600482101561056c578160ff821611156118dd577f2e988de19314500da630a0d5e206508978dac34b0010f6f90da82ca0884bca67916104f760409285600052600d6020526118c781600786600020016126bd565b6118d38451809461216c565b602083019061216c565b60405162461bcd60e51b815260206004820152601560248201527421b0b71037b7363c903ab833b930b232903a34b2b960591b6044820152606490fd5b346102ac5760203660031901126102ac5761199d90600435600052600d60205260406000206103e261194b8261220e565b926119d061195b6001850161220e565b9160018060a01b0360028601541694600381015460048201546005830154916119ab60076006860154950154976040519c8d9c8d6101209081815201906120be565b8c810360208e0152906120be565b9860408b015260608a0152608089015260a088015260c0870152850160ff831661215f565b60ff61010085019160081c1661216c565b346102ac5760203660031901126102ac57600435600854811015611a1857611a0a602091612686565b90546040519160031b1c8152f35b6044906040519063295f44f760e21b8252600060048301526024820152fd5b346102ac5760203660031901126102ac576001600160a01b03611a586120fe565b166000526010602052602060ff604060002054166040519015158152f35b346102ac5760003660031901126102ac57611a8f612925565b478015611af657600a546000918291829182916001600160a01b03165af1611ab5612656565b5015611abd57005b60405162461bcd60e51b815260206004820152601160248201527015da5d1a191c985dd85b0819985a5b1959607a1b6044820152606490fd5b60405162461bcd60e51b81526020600482015260136024820152724e6f206665657320746f20776974686472617760681b6044820152606490fd5b346102ac57610642611b423661212a565b9060405192611b50846121d0565b6000845261063c838383612375565b346102ac5760203660031901126102ac576001600160a01b03611b806120fe565b166000526011602052602060ff604060002054166040519015158152f35b346102ac5760203660031901126102ac57600435611bbf600c548210612607565b600052600d60205260ff60076040600020015416600381101561056c5760209060405190158152f35b346102ac5760403660031901126102ac57611c016120fe565b60243590611c0e816127b0565b821015611c415760018060a01b031660005260066020526040600020906000526020526020604060002054604051908152f35b60405163295f44f760e21b81526001600160a01b039190911660048201526024810191909152604490fd5b346102ac576020806003193601126102ac5760405191600435611c8e846121b3565b60608452606083850152600060408501526000606085015260006080850152600060a0850152600060c0850152600082850152600061010080950152611cd7600c548210612607565b600052600d825260406000209260405193611cf1856121b3565b611cfa8161220e565b8552611d086001820161220e565b9184860192835260018060a01b039283600284015416946040880195865260038401549360608901948552600481015460808a0190815260058201549060a08b01918252600760068401549360c08d0194855201549660ff881698858d019660038b101561056c57888e8e9c8a52019960081c60ff16611d88908b61264a565b6040519d8e9d8e52518d610120809d82015261014001611da7916120be565b90518d8203601f190160408f0152611dbf91906120be565b9a511660608c01525160808b01525160a08a01525160c0890152519087015251908501611deb9161215f565b519083016103e29161216c565b346102ac57610642611e093661212a565b91612375565b346102ac5760003660031901126102ac576020600854604051908152f35b346102ac5760003660031901126102ac576020601254604051908152f35b346102ac5760003660031901126102ac576020601354604051908152f35b346102ac5760403660031901126102ac57611e826120fe565b602435611e8e816128ea565b33151580611f3d575b80611f10575b611ef8576001600160a01b039283169282918491167f8c5be1e5ebec7d5bd14f71427d1e84f3dd0314c0f7b2291e5b200ac8c7c3b925600080a4600090815260046020526040902080546001600160a01b0319169091179055005b60405163a9fbf51f60e01b8152336004820152602490fd5b5060018060a01b038116600052600560205260406000203360005260205260ff6040600020541615611e9d565b506001600160a01b038116331415611e97565b346102ac5760203660031901126102ac57600435611f6d816128ea565b506000526004602052602060018060a01b0360406000205416604051908152f35b346102ac5760003660031901126102ac57604051600080549082611fb183612179565b918282526020936001908560018216918260001461104f575050600114611fdf5750610fde925003836121ec565b6000808052859250907f290decd9548b62a8d60345a988386fc84ba6bc95484008f6362f93160ef3e5635b858310612021575050610fde935082010185610fd1565b8054838901850152879450869390920191810161200a565b346102ac5760203660031901126102ac576004359063ffffffff60e01b82168092036102ac5760209163780e9d6360e01b811490811561207b575b5015158152f35b6380ac58cd60e01b8114915081156120ad575b811561209c575b5083612074565b6301ffc9a760e01b14905083612095565b635b5e139f60e01b8114915061208e565b919082519283825260005b8481106120ea575050826000602080949584010152601f8019910116010190565b6020818301810151848301820152016120c9565b600435906001600160a01b03821682036102ac57565b602435906001600160a01b03821682036102ac57565b60609060031901126102ac576001600160a01b039060043582811681036102ac579160243590811681036102ac579060443590565b90600382101561056c5752565b90600482101561056c5752565b90600182811c921680156121a9575b602083101461219357565b634e487b7160e01b600052602260045260246000fd5b91607f1691612188565b610120810190811067ffffffffffffffff821117610bf357604052565b6020810190811067ffffffffffffffff821117610bf357604052565b90601f8019910116810190811067ffffffffffffffff821117610bf357604052565b9060405191826000825461222181612179565b908184526020946001916001811690816000146122915750600114612252575b505050612250925003836121ec565b565b600090815285812095935091905b8183106122795750506122509350820101388080612241565b85548884018501529485019487945091830191612260565b9250505061225094925060ff191682840152151560051b820101388080612241565b6024359081151582036102ac57565b9181601f840112156102ac5782359167ffffffffffffffff83116102ac57602083818601950101116102ac57565b805482101561230c576000526003602060002091020190600090565b634e487b7160e01b600052603260045260246000fd5b67ffffffffffffffff8111610bf357601f01601f191660200190565b92919261234a82612322565b9161235860405193846121ec565b8294818452818301116102ac578281602093846000960137010152565b6001600160a01b0382811693918415610cc757600094838652602095600287526040968488832054169633151580612579575b5087158015612546575b84845260038352898420805460010190558784526002835289842080546001600160a01b0319168617905587858a7fddf252ad1be2c89b69c2b068fc378daa952ba7f163c4a11628f55a4df523b3ef8780a4156124da5760085487845260098352808a852055600160401b8110156124c657876109938260016124389401600855612686565b838803612474575b5050505016928383036124535750505050565b6064945051926364283d7b60e01b8452600484015260248301526044820152fd5b61247d906127b0565b6000198101939084116124b25782916007918a9452600681528383208584528152878484205587835252205538808080612440565b634e487b7160e01b83526011600452602483fd5b634e487b7160e01b84526041600452602484fd5b878414612438576124ea886127b0565b878452600783528984205490898552600684528a852091818103612524575b5088855260078452848b812055845282528289812055612438565b8186528285528b862054818752808d8820558652600785528b86205538612509565b600088815260046020526040902080546001600160a01b03191690558884526003835289842080546000190190556123b2565b806125c6575b1561258a57386123a8565b8887896125a7576024915190637e27328960e01b82526004820152fd5b905163177e802f60e01b81523360048201526024810191909152604490fd5b5033881480156125eb575b8061257f57508683526004825233868a852054161461257f565b5087835260058252888320338452825260ff89842054166125d1565b1561260e57565b60405162461bcd60e51b81526020600482015260146024820152731059d95b9d08191bd95cc81b9bdd08195e1a5cdd60621b6044820152606490fd5b600482101561056c5752565b3d15612681573d9061266782612322565b9161267560405193846121ec565b82523d6000602084013e565b606090565b60085481101561230c5760086000527ff3f7a9fe364faab93b216da50a3214154f22a0a2b415b23a84c8169e8b636ee30190600090565b90600481101561056c5761ff0082549160081b169061ff001916179055565b6000198114610a8a5760010190565b91908201809211610a8a57565b90601f811161270657505050565b6000916000526020600020906020601f850160051c83019410612744575b601f0160051c01915b82811061273957505050565b81815560010161272d565b9092508290612724565b1561275557565b60405162461bcd60e51b81526020600482015260126024820152712737ba1030b3b2b73a1037b832b930ba37b960711b6044820152606490fd5b908060209392818452848401376000828201840152601f01601f1916010190565b6001600160a01b031680156127d057600052600360205260406000205490565b6040516322718ad960e21b815260006004820152602490fd5b81156127f3570490565b634e487b7160e01b600052601260045260246000fd5b600052600d6020526040600020600481015490811561284757600501549061271091828102928184041490151715610a8a57612844916127e9565b90565b5050600090565b90600381101561056c5760ff80198354169116179055565b906000918252600e6020526040822080549081156128e657839084905b8382106128be5750506064810290808204606414901517156128aa576128449293506127e9565b634e487b7160e01b84526011600452602484fd5b90916128de60019160ff6128d286866122f0565b505460a01c16906126eb565b920190612883565b5050565b6000818152600260205260409020546001600160a01b031690811561290d575090565b60249060405190637e27328960e01b82526004820152fd5b600a546001600160a01b0316330361293957565b60405163118cdaa760e01b8152336004820152602490fd5b9293823b612961575b5050505050565b6129a59060018060a01b038094169560405194859481630a85bd0160e11b9889885216600487015216602485015260448401526080606484015260848301906120be565b03906020816000938185885af190829082612a25575b50506129f357826129ca612656565b80519190826129ec57604051633250574960e11b815260048101839052602490fd5b6020915001fd5b6001600160e01b03191603612a0d5750388080808061295a565b60249060405190633250574960e11b82526004820152fd5b909192506020813d602011612a6d575b81612a42602093836121ec565b81010312612a695751906001600160e01b031982168203612a6657509038806129bb565b80fd5b5080fd5b3d9150612a3556fea2646970667358221220d55e64068ef5d07e0d55efe33db23931a30657f379918682e66ad061cfebd4fb64736f6c63430008180033","opcodes":"PUSH1 0x80 CALLVALUE PUSH3 0x3D0 JUMPI PUSH1 0x1F NOT SWAP1 PUSH1 0x1F SWAP1 PUSH1 0x1 PUSH1 0x1 PUSH1 0x40 SHL SUB SWAP1 PUSH3 0x2EA1 CODESIZE DUP2 SWAP1 SUB DUP5 DUP2 ADD DUP7 AND DUP4 ADD SWAP2 SWAP1 DUP5 DUP4 GT DUP5 DUP5 LT OR PUSH3 0x3BA JUMPI DUP1 DUP5 SWAP3 PUSH1 0x40 SWAP5 DUP6 MSTORE DUP4 CODECOPY DUP2 ADD SUB SLT PUSH3 0x3D0 JUMPI DUP1 MLOAD SWAP2 PUSH1 0x20 DUP1 SWAP3 ADD MLOAD SWAP4 PUSH3 0x5B PUSH3 0x3D5 JUMP JUMPDEST SWAP3 PUSH1 0x14 DUP5 MSTORE PUSH32 0x416567697320477561726469616E204167656E74000000000000000000000000 DUP2 DUP6 ADD MSTORE PUSH3 0x8F PUSH3 0x3D5 JUMP JUMPDEST SWAP1 PUSH1 0x5 DUP3 MSTORE PUSH5 0x4145474953 PUSH1 0xD8 SHL DUP2 DUP4 ADD MSTORE DUP5 MLOAD SWAP8 DUP5 DUP10 GT PUSH3 0x3BA JUMPI PUSH1 0x0 SWAP9 DUP10 SLOAD SWAP7 PUSH1 0x1 SWAP8 DUP9 DUP2 DUP2 SHR SWAP2 AND DUP1 ISZERO PUSH3 0x3AF JUMPI JUMPDEST DUP6 DUP3 LT EQ PUSH3 0x39B JUMPI SWAP1 DUP2 DUP8 DUP5 SWAP4 GT PUSH3 0x348 JUMPI JUMPDEST POP DUP5 SWAP1 DUP8 DUP4 GT PUSH1 0x1 EQ PUSH3 0x2E7 JUMPI DUP13 SWAP3 PUSH3 0x2DB JUMPI JUMPDEST POP POP PUSH1 0x0 NOT PUSH1 0x3 DUP4 SWAP1 SHL SHR NOT AND SWAP1 DUP8 SHL OR DUP10 SSTORE JUMPDEST DUP3 MLOAD SWAP5 DUP6 GT PUSH3 0x2C7 JUMPI DUP6 SLOAD DUP7 DUP2 DUP2 SHR SWAP2 AND DUP1 ISZERO PUSH3 0x2BC JUMPI JUMPDEST DUP4 DUP3 LT EQ PUSH3 0x2A8 JUMPI SWAP1 DUP2 DUP6 DUP8 SWAP7 SWAP6 SWAP5 SWAP4 GT PUSH3 0x24F JUMPI JUMPDEST POP DUP2 SWAP4 DUP6 GT PUSH1 0x1 EQ PUSH3 0x1EA JUMPI POP POP DUP8 SWAP3 PUSH3 0x1DE JUMPI JUMPDEST POP POP PUSH1 0x0 NOT PUSH1 0x3 DUP4 SWAP1 SHL SHR NOT AND SWAP1 DUP3 SHL OR DUP2 SSTORE JUMPDEST CALLER ISZERO PUSH3 0x1C5 JUMPI PUSH1 0xA DUP1 SLOAD CALLER PUSH1 0x1 PUSH1 0x1 PUSH1 0xA0 SHL SUB NOT DUP3 AND DUP2 OR SWAP1 SWAP3 SSTORE PUSH1 0x40 MLOAD SWAP6 PUSH1 0x1 PUSH1 0x1 PUSH1 0xA0 SHL SUB SWAP1 SWAP2 AND SWAP1 PUSH32 0x8BE0079C531659141344CD1FD0A4F28419497F9722A3DAAFE3B4186F6B6457E0 SWAP1 DUP1 LOG3 PUSH1 0xB SSTORE PUSH1 0x12 SSTORE PUSH1 0x13 SSTORE PUSH2 0x2AAB SWAP1 DUP2 PUSH3 0x3F6 DUP3 CODECOPY RETURN JUMPDEST PUSH1 0x40 MLOAD PUSH4 0x1E4FBDF7 PUSH1 0xE0 SHL DUP2 MSTORE PUSH1 0x4 DUP2 ADD DUP6 SWAP1 MSTORE PUSH1 0x24 SWAP1 REVERT JUMPDEST ADD MLOAD SWAP1 POP CODESIZE DUP1 PUSH3 0x14B JUMP JUMPDEST DUP7 SWAP6 SWAP4 SWAP3 SWAP2 SWAP4 AND DUP6 DUP11 MSTORE DUP4 DUP11 KECCAK256 SWAP4 DUP11 SWAP1 JUMPDEST DUP3 DUP3 LT PUSH3 0x235 JUMPI POP POP DUP5 GT PUSH3 0x21B JUMPI JUMPDEST POP POP POP DUP2 SHL ADD DUP2 SSTORE PUSH3 0x15F JUMP JUMPDEST ADD MLOAD PUSH1 0x0 NOT PUSH1 0xF8 DUP5 PUSH1 0x3 SHL AND SHR NOT AND SWAP1 SSTORE CODESIZE DUP1 DUP1 PUSH3 0x20D JUMP JUMPDEST DUP5 DUP5 ADD MLOAD DUP7 SSTORE DUP9 SWAP8 SWAP1 SWAP6 ADD SWAP5 SWAP4 DUP5 ADD SWAP4 SWAP1 DUP2 ADD SWAP1 PUSH3 0x1FB JUMP JUMPDEST SWAP1 SWAP2 SWAP3 SWAP4 SWAP5 POP DUP7 DUP11 MSTORE DUP3 DUP11 KECCAK256 DUP6 DUP1 DUP9 ADD PUSH1 0x5 SHR DUP3 ADD SWAP3 DUP6 DUP10 LT PUSH3 0x29E JUMPI JUMPDEST SWAP2 DUP9 SWAP8 DUP11 SWAP3 SWAP8 SWAP7 SWAP6 SWAP5 SWAP4 ADD PUSH1 0x5 SHR ADD SWAP2 JUMPDEST DUP3 DUP2 LT PUSH3 0x28F JUMPI POP POP PUSH3 0x134 JUMP JUMPDEST DUP13 DUP2 SSTORE DUP9 SWAP8 POP DUP10 SWAP2 ADD PUSH3 0x27F JUMP JUMPDEST SWAP3 POP DUP2 SWAP3 PUSH3 0x26E JUMP JUMPDEST PUSH4 0x4E487B71 PUSH1 0xE0 SHL DUP11 MSTORE PUSH1 0x22 PUSH1 0x4 MSTORE PUSH1 0x24 DUP11 REVERT JUMPDEST SWAP1 PUSH1 0x7F AND SWAP1 PUSH3 0x11C JUMP JUMPDEST PUSH4 0x4E487B71 PUSH1 0xE0 SHL DUP10 MSTORE PUSH1 0x41 PUSH1 0x4 MSTORE PUSH1 0x24 DUP10 REVERT JUMPDEST ADD MLOAD SWAP1 POP CODESIZE DUP1 PUSH3 0xEE JUMP JUMPDEST SWAP1 DUP13 SWAP2 DUP6 DUP12 SWAP6 AND DUP4 DUP1 MSTORE DUP8 DUP5 KECCAK256 SWAP4 JUMPDEST DUP9 DUP3 DUP3 LT PUSH3 0x331 JUMPI POP POP DUP5 GT PUSH3 0x317 JUMPI JUMPDEST POP POP POP DUP2 SHL ADD DUP10 SSTORE PUSH3 0x102 JUMP JUMPDEST ADD MLOAD PUSH1 0x0 NOT PUSH1 0xF8 DUP5 PUSH1 0x3 SHL AND SHR NOT AND SWAP1 SSTORE CODESIZE DUP1 DUP1 PUSH3 0x309 JUMP JUMPDEST DUP4 DUP6 ADD MLOAD DUP7 SSTORE DUP14 SWAP8 SWAP1 SWAP6 ADD SWAP5 SWAP4 DUP5 ADD SWAP4 ADD PUSH3 0x2F6 JUMP JUMPDEST SWAP1 SWAP2 POP DUP12 DUP1 MSTORE DUP5 DUP13 KECCAK256 DUP8 DUP1 DUP6 ADD PUSH1 0x5 SHR DUP3 ADD SWAP3 DUP8 DUP7 LT PUSH3 0x391 JUMPI JUMPDEST SWAP2 DUP12 SWAP2 DUP7 SWAP6 SWAP5 SWAP4 ADD PUSH1 0x5 SHR ADD SWAP2 JUMPDEST DUP3 DUP2 LT PUSH3 0x382 JUMPI POP POP PUSH3 0xD8 JUMP JUMPDEST DUP15 DUP2 SSTORE DUP6 SWAP5 POP DUP12 SWAP2 ADD PUSH3 0x372 JUMP JUMPDEST SWAP3 POP DUP2 SWAP3 PUSH3 0x364 JUMP JUMPDEST PUSH4 0x4E487B71 PUSH1 0xE0 SHL DUP13 MSTORE PUSH1 0x22 PUSH1 0x4 MSTORE PUSH1 0x24 DUP13 REVERT JUMPDEST SWAP1 PUSH1 0x7F AND SWAP1 PUSH3 0xC3 JUMP JUMPDEST PUSH4 0x4E487B71 PUSH1 0xE0 SHL PUSH1 0x0 MSTORE PUSH1 0x41 PUSH1 0x4 MSTORE PUSH1 0x24 PUSH1 0x0 REVERT JUMPDEST PUSH1 0x0 DUP1 REVERT JUMPDEST PUSH1 0x40 DUP1 MLOAD SWAP2 SWAP1 DUP3 ADD PUSH1 0x1 PUSH1 0x1 PUSH1 0x40 SHL SUB DUP2 GT DUP4 DUP3 LT OR PUSH3 0x3BA JUMPI PUSH1 0x40 MSTORE JUMP INVALID PUSH1 0x80 DUP1 PUSH1 0x40 MSTORE PUSH1 0x4 CALLDATASIZE LT ISZERO PUSH2 0x13 JUMPI PUSH1 0x0 DUP1 REVERT JUMPDEST PUSH1 0xE0 PUSH1 0x0 CALLDATALOAD DUP2 SHR SWAP2 DUP3 PUSH4 0x1FFC9A7 EQ PUSH2 0x2039 JUMPI POP DUP2 PUSH4 0x6FDDE03 EQ PUSH2 0x1F8E JUMPI DUP2 PUSH4 0x81812FC EQ PUSH2 0x1F50 JUMPI DUP2 PUSH4 0x95EA7B3 EQ PUSH2 0x1E69 JUMPI DUP2 PUSH4 0xA34D637 EQ PUSH2 0x1E4B JUMPI DUP2 PUSH4 0x14C44E09 EQ PUSH2 0x1E2D JUMPI DUP2 PUSH4 0x18160DDD EQ PUSH2 0x1E0F JUMPI DUP2 PUSH4 0x23B872DD EQ PUSH2 0x1DF8 JUMPI DUP2 PUSH4 0x2DE5AAF7 EQ PUSH2 0x1C6C JUMPI DUP2 PUSH4 0x2F745C59 EQ PUSH2 0x1BE8 JUMPI DUP2 PUSH4 0x392D2D8E EQ PUSH2 0x1B9E JUMPI DUP2 PUSH4 0x393B8516 EQ PUSH2 0x1B5F JUMPI DUP2 PUSH4 0x42842E0E EQ PUSH2 0x1B31 JUMPI DUP2 PUSH4 0x476343EE EQ PUSH2 0x1A76 JUMPI DUP2 PUSH4 0x4AA11248 EQ PUSH2 0x1A37 JUMPI DUP2 PUSH4 0x4F6CCCE7 EQ PUSH2 0x19E1 JUMPI DUP2 PUSH4 0x513856C8 EQ PUSH2 0x191A JUMPI DUP2 PUSH4 0x521BA2CB EQ PUSH2 0x1824 JUMPI DUP2 PUSH4 0x5D0A4782 EQ PUSH2 0x1719 JUMPI DUP2 PUSH4 0x6352211E EQ PUSH2 0x16E9 JUMPI DUP2 PUSH4 0x655914AB EQ PUSH2 0x13EF JUMPI DUP2 PUSH4 0x6B595822 EQ PUSH2 0x124E JUMPI DUP2 PUSH4 0x70A08231 EQ PUSH2 0x122B JUMPI DUP2 PUSH4 0x715018A6 EQ PUSH2 0x11CE JUMPI DUP2 PUSH4 0x7CC0C9BD EQ PUSH2 0x11A2 JUMPI DUP2 PUSH4 0x7F5B1680 EQ PUSH2 0x1168 JUMPI DUP2 PUSH4 0x839FAE66 EQ PUSH2 0x10E1 JUMPI DUP2 PUSH4 0x8A650841 EQ PUSH2 0x10B6 JUMPI DUP2 PUSH4 0x8DA5CB5B EQ PUSH2 0x108D JUMPI DUP2 PUSH4 0x91CAB63E EQ PUSH2 0x106F JUMPI DUP2 PUSH4 0x95D89B41 EQ PUSH2 0xF8C JUMPI DUP2 PUSH4 0xA22CB465 EQ PUSH2 0xEE1 JUMPI DUP2 PUSH4 0xA970C8E0 EQ PUSH2 0x644 JUMPI POP DUP1 PUSH4 0xB88D4FDE EQ PUSH2 0x5D6 JUMPI DUP1 PUSH4 0xBD5BCB0A EQ PUSH2 0x5A3 JUMPI DUP1 PUSH4 0xC320C727 EQ PUSH2 0x582 JUMPI DUP1 PUSH4 0xC6FE8E31 EQ PUSH2 0x422 JUMPI DUP1 PUSH4 0xC87B56DD EQ PUSH2 0x395 JUMPI DUP1 PUSH4 0xE985E9C5 EQ PUSH2 0x33F JUMPI DUP1 PUSH4 0xF2FDE38B EQ PUSH2 0x2B1 JUMPI PUSH4 0xFEE61032 EQ PUSH2 0x1E4 JUMPI PUSH1 0x0 DUP1 REVERT JUMPDEST CALLVALUE PUSH2 0x2AC JUMPI PUSH1 0x40 CALLDATASIZE PUSH1 0x3 NOT ADD SLT PUSH2 0x2AC JUMPI PUSH2 0x1FD PUSH2 0x20FE JUMP JUMPDEST PUSH2 0x205 PUSH2 0x22B3 JUMP JUMPDEST SWAP1 PUSH2 0x20E PUSH2 0x2925 JUMP JUMPDEST PUSH1 0x1 PUSH1 0x1 PUSH1 0xA0 SHL SUB AND SWAP1 DUP2 ISZERO PUSH2 0x26F JUMPI PUSH1 0x20 PUSH32 0x18F47F52423FCEA7FA18E18E69F46B50562F0A8090B20F6C3DDF12BA6FF84FEB SWAP2 DUP4 PUSH1 0x0 MSTORE PUSH1 0x11 DUP3 MSTORE PUSH2 0x264 DUP2 PUSH1 0x40 PUSH1 0x0 KECCAK256 SWAP1 PUSH1 0xFF DUP1 NOT DUP4 SLOAD AND SWAP2 ISZERO ISZERO AND OR SWAP1 SSTORE JUMP JUMPDEST PUSH1 0x40 MLOAD SWAP1 ISZERO ISZERO DUP2 MSTORE LOG2 STOP JUMPDEST PUSH1 0x40 MLOAD PUSH3 0x461BCD PUSH1 0xE5 SHL DUP2 MSTORE PUSH1 0x20 PUSH1 0x4 DUP3 ADD MSTORE PUSH1 0x15 PUSH1 0x24 DUP3 ADD MSTORE PUSH21 0x496E76616C6964207661756C742061646472657373 PUSH1 0x58 SHL PUSH1 0x44 DUP3 ADD MSTORE PUSH1 0x64 SWAP1 REVERT JUMPDEST PUSH1 0x0 DUP1 REVERT JUMPDEST CALLVALUE PUSH2 0x2AC JUMPI PUSH1 0x20 CALLDATASIZE PUSH1 0x3 NOT ADD SLT PUSH2 0x2AC JUMPI PUSH2 0x2CA PUSH2 0x20FE JUMP JUMPDEST PUSH2 0x2D2 PUSH2 0x2925 JUMP JUMPDEST PUSH1 0x1 PUSH1 0x1 PUSH1 0xA0 SHL SUB SWAP1 DUP2 AND SWAP1 DUP2 ISZERO PUSH2 0x326 JUMPI PUSH1 0xA SLOAD DUP3 PUSH12 0xFFFFFFFFFFFFFFFFFFFFFFFF PUSH1 0xA0 SHL DUP3 AND OR PUSH1 0xA SSTORE AND PUSH32 0x8BE0079C531659141344CD1FD0A4F28419497F9722A3DAAFE3B4186F6B6457E0 PUSH1 0x0 DUP1 LOG3 STOP JUMPDEST PUSH1 0x40 MLOAD PUSH4 0x1E4FBDF7 PUSH1 0xE0 SHL DUP2 MSTORE PUSH1 0x0 PUSH1 0x4 DUP3 ADD MSTORE PUSH1 0x24 SWAP1 REVERT JUMPDEST CALLVALUE PUSH2 0x2AC JUMPI PUSH1 0x40 CALLDATASIZE PUSH1 0x3 NOT ADD SLT PUSH2 0x2AC JUMPI PUSH2 0x358 PUSH2 0x20FE JUMP JUMPDEST PUSH2 0x360 PUSH2 0x2114 JUMP JUMPDEST SWAP1 PUSH1 0x1 DUP1 PUSH1 0xA0 SHL SUB DUP1 SWAP2 AND PUSH1 0x0 MSTORE PUSH1 0x5 PUSH1 0x20 MSTORE PUSH1 0x40 PUSH1 0x0 KECCAK256 SWAP2 AND PUSH1 0x0 MSTORE PUSH1 0x20 MSTORE PUSH1 0x20 PUSH1 0xFF PUSH1 0x40 PUSH1 0x0 KECCAK256 SLOAD AND PUSH1 0x40 MLOAD SWAP1 ISZERO ISZERO DUP2 MSTORE RETURN JUMPDEST CALLVALUE PUSH2 0x2AC JUMPI PUSH1 0x20 CALLDATASIZE PUSH1 0x3 NOT ADD SLT PUSH2 0x2AC JUMPI PUSH1 0x4 CALLDATALOAD PUSH1 0xC SLOAD DUP2 LT ISZERO PUSH2 0x3E6 JUMPI PUSH1 0x0 MSTORE PUSH1 0xD PUSH1 0x20 MSTORE PUSH2 0x3E2 PUSH2 0x3CE PUSH1 0x1 PUSH1 0x40 PUSH1 0x0 KECCAK256 ADD PUSH2 0x220E JUMP JUMPDEST PUSH1 0x40 MLOAD SWAP2 DUP3 SWAP2 PUSH1 0x20 DUP4 MSTORE PUSH1 0x20 DUP4 ADD SWAP1 PUSH2 0x20BE JUMP JUMPDEST SUB SWAP1 RETURN JUMPDEST PUSH1 0x40 MLOAD PUSH3 0x461BCD PUSH1 0xE5 SHL DUP2 MSTORE PUSH1 0x20 PUSH1 0x4 DUP3 ADD MSTORE PUSH1 0x14 PUSH1 0x24 DUP3 ADD MSTORE PUSH20 0x151BDAD95B88191BD95CC81B9BDD08195E1A5CDD PUSH1 0x62 SHL PUSH1 0x44 DUP3 ADD MSTORE PUSH1 0x64 SWAP1 REVERT JUMPDEST CALLVALUE PUSH2 0x2AC JUMPI PUSH1 0x40 CALLDATASIZE PUSH1 0x3 NOT ADD SLT PUSH2 0x2AC JUMPI PUSH1 0x4 CALLDATALOAD PUSH1 0x24 CALLDATALOAD PUSH1 0x3 DUP2 LT ISZERO PUSH2 0x2AC JUMPI DUP2 PUSH1 0x0 MSTORE PUSH1 0x20 SWAP1 PUSH1 0xD DUP3 MSTORE PUSH2 0x468 PUSH1 0x1 DUP1 PUSH1 0xA0 SHL SUB PUSH1 0x2 PUSH1 0x40 PUSH1 0x0 KECCAK256 ADD SLOAD AND CALLER EQ PUSH2 0x274E JUMP JUMPDEST PUSH2 0x475 PUSH1 0xC SLOAD DUP5 LT PUSH2 0x2607 JUMP JUMPDEST DUP3 PUSH1 0x0 MSTORE PUSH1 0xD DUP3 MSTORE PUSH1 0xFF PUSH1 0x7 PUSH1 0x40 PUSH1 0x0 KECCAK256 ADD SLOAD AND SWAP2 PUSH1 0x3 DUP4 LT ISZERO PUSH2 0x56C JUMPI DUP2 DUP4 EQ PUSH2 0x535 JUMPI PUSH1 0x2 DUP4 EQ PUSH2 0x4FA JUMPI SWAP2 PUSH2 0x4F7 PUSH1 0x40 SWAP3 PUSH32 0xAEE32B7C15A5E7EB6C9FE661BD68A482005DA78A005E52C4EF956A914FDB3946 SWAP5 DUP7 PUSH1 0x0 MSTORE PUSH1 0xD DUP2 MSTORE PUSH2 0x4E3 DUP3 PUSH1 0x7 DUP8 PUSH1 0x0 KECCAK256 ADD PUSH2 0x284E JUMP JUMPDEST PUSH2 0x4EF DUP6 MLOAD DUP1 SWAP6 PUSH2 0x215F JUMP JUMPDEST DUP4 ADD SWAP1 PUSH2 0x215F JUMP JUMPDEST LOG2 STOP JUMPDEST PUSH1 0x64 SWAP1 PUSH1 0x40 MLOAD SWAP1 PUSH3 0x461BCD PUSH1 0xE5 SHL DUP3 MSTORE PUSH1 0x4 DUP3 ADD MSTORE PUSH1 0x14 PUSH1 0x24 DUP3 ADD MSTORE PUSH20 0x1059D95B9D08191958DBDB5B5A5CDCDA5BDB9959 PUSH1 0x62 SHL PUSH1 0x44 DUP3 ADD MSTORE REVERT JUMPDEST PUSH1 0x64 SWAP1 PUSH1 0x40 MLOAD SWAP1 PUSH3 0x461BCD PUSH1 0xE5 SHL DUP3 MSTORE PUSH1 0x4 DUP3 ADD MSTORE PUSH1 0x10 PUSH1 0x24 DUP3 ADD MSTORE PUSH16 0x14DD185D1D5CC81D5B98DA185B99D959 PUSH1 0x82 SHL PUSH1 0x44 DUP3 ADD MSTORE REVERT JUMPDEST PUSH4 0x4E487B71 PUSH1 0xE0 SHL PUSH1 0x0 MSTORE PUSH1 0x21 PUSH1 0x4 MSTORE PUSH1 0x24 PUSH1 0x0 REVERT JUMPDEST CALLVALUE PUSH2 0x2AC JUMPI PUSH1 0x20 CALLDATASIZE PUSH1 0x3 NOT ADD SLT PUSH2 0x2AC JUMPI PUSH2 0x59B PUSH2 0x2925 JUMP JUMPDEST PUSH1 0x4 CALLDATALOAD PUSH1 0x12 SSTORE STOP JUMPDEST CALLVALUE PUSH2 0x2AC JUMPI PUSH1 0x20 CALLDATASIZE PUSH1 0x3 NOT ADD SLT PUSH2 0x2AC JUMPI PUSH1 0x20 PUSH2 0x5CE PUSH1 0x4 CALLDATALOAD PUSH2 0x5C9 PUSH1 0xC SLOAD DUP3 LT PUSH2 0x2607 JUMP JUMPDEST PUSH2 0x2866 JUMP JUMPDEST PUSH1 0x40 MLOAD SWAP1 DUP2 MSTORE RETURN JUMPDEST CALLVALUE PUSH2 0x2AC JUMPI PUSH1 0x80 CALLDATASIZE PUSH1 0x3 NOT ADD SLT PUSH2 0x2AC JUMPI PUSH2 0x5EF PUSH2 0x20FE JUMP JUMPDEST PUSH2 0x5F7 PUSH2 0x2114 JUMP JUMPDEST SWAP1 PUSH1 0x44 CALLDATALOAD PUSH1 0x64 CALLDATALOAD SWAP3 PUSH8 0xFFFFFFFFFFFFFFFF DUP5 GT PUSH2 0x2AC JUMPI CALLDATASIZE PUSH1 0x23 DUP6 ADD SLT ISZERO PUSH2 0x2AC JUMPI PUSH2 0x630 PUSH2 0x642 SWAP5 CALLDATASIZE SWAP1 PUSH1 0x24 DUP2 PUSH1 0x4 ADD CALLDATALOAD SWAP2 ADD PUSH2 0x233E JUMP JUMPDEST SWAP3 PUSH2 0x63C DUP4 DUP4 DUP4 PUSH2 0x2375 JUMP JUMPDEST CALLER PUSH2 0x2951 JUMP JUMPDEST STOP JUMPDEST PUSH1 0x60 CALLDATASIZE PUSH1 0x3 NOT ADD SLT PUSH2 0x2AC JUMPI PUSH1 0x4 CALLDATALOAD PUSH8 0xFFFFFFFFFFFFFFFF DUP2 GT PUSH2 0x2AC JUMPI PUSH2 0x670 SWAP1 CALLDATASIZE SWAP1 PUSH1 0x4 ADD PUSH2 0x22C2 JUMP JUMPDEST SWAP1 SWAP2 PUSH1 0x24 CALLDATALOAD PUSH8 0xFFFFFFFFFFFFFFFF DUP2 GT PUSH2 0x2AC JUMPI PUSH2 0x692 SWAP1 CALLDATASIZE SWAP1 PUSH1 0x4 ADD PUSH2 0x22C2 JUMP JUMPDEST PUSH1 0x4 PUSH1 0x44 SWAP6 SWAP3 SWAP6 CALLDATALOAD LT ISZERO PUSH2 0x2AC JUMPI PUSH1 0x2 PUSH1 0xB SLOAD EQ PUSH2 0xECF JUMPI PUSH1 0x2 PUSH1 0xB SSTORE PUSH1 0x12 SLOAD CALLVALUE LT PUSH2 0xE8A JUMPI CALLER PUSH1 0x0 MSTORE PUSH1 0x10 PUSH1 0x20 MSTORE PUSH1 0xFF PUSH1 0x40 PUSH1 0x0 KECCAK256 SLOAD AND PUSH2 0xE45 JUMPI PUSH1 0xC SLOAD SWAP5 PUSH1 0x13 SLOAD DUP7 LT ISZERO PUSH2 0xE0B JUMPI DUP5 ISZERO ISZERO DUP1 PUSH2 0xE00 JUMPI JUMPDEST ISZERO PUSH2 0xDC5 JUMPI PUSH2 0x71B SWAP1 PUSH2 0x6F7 DUP8 PUSH2 0x26DC JUMP JUMPDEST PUSH1 0xC SSTORE PUSH1 0x40 MLOAD SWAP3 PUSH2 0x707 DUP5 PUSH2 0x21B3 JUMP JUMPDEST PUSH2 0x712 CALLDATASIZE DUP9 DUP8 PUSH2 0x233E JUMP JUMPDEST DUP5 MSTORE CALLDATASIZE SWAP2 PUSH2 0x233E JUMP JUMPDEST PUSH1 0x20 DUP3 ADD MSTORE CALLER PUSH1 0x40 DUP3 ADD MSTORE TIMESTAMP PUSH1 0x60 DUP3 ADD MSTORE PUSH1 0x0 PUSH1 0x80 DUP3 ADD MSTORE PUSH1 0x0 PUSH1 0xA0 DUP3 ADD MSTORE PUSH1 0x0 PUSH1 0xC0 DUP3 ADD MSTORE PUSH1 0x0 DUP4 DUP3 ADD MSTORE PUSH2 0x757 PUSH1 0x44 CALLDATALOAD PUSH2 0x100 DUP4 ADD PUSH2 0x264A JUMP JUMPDEST DUP5 PUSH1 0x0 MSTORE PUSH1 0xD PUSH1 0x20 MSTORE PUSH1 0x40 PUSH1 0x0 KECCAK256 SWAP3 DUP2 MLOAD DUP1 MLOAD SWAP1 PUSH8 0xFFFFFFFFFFFFFFFF DUP3 GT PUSH2 0xBF3 JUMPI PUSH2 0x78E DUP3 PUSH2 0x788 DUP9 SLOAD PUSH2 0x2179 JUMP JUMPDEST DUP9 PUSH2 0x26F8 JUMP JUMPDEST PUSH1 0x20 SWAP1 PUSH1 0x1F DUP4 GT PUSH1 0x1 EQ PUSH2 0xD5D JUMPI PUSH2 0x7BF SWAP3 SWAP2 PUSH1 0x0 SWAP2 DUP4 PUSH2 0xCE0 JUMPI JUMPDEST POP POP DUP2 PUSH1 0x1 SHL SWAP2 PUSH1 0x0 NOT SWAP1 PUSH1 0x3 SHL SHR NOT AND OR SWAP1 JUMP JUMPDEST DUP5 SSTORE JUMPDEST PUSH1 0x20 DUP3 ADD MLOAD DUP1 MLOAD SWAP1 PUSH8 0xFFFFFFFFFFFFFFFF DUP3 GT PUSH2 0xBF3 JUMPI PUSH2 0x7F3 DUP3 PUSH2 0x7EA PUSH1 0x1 DUP10 ADD SLOAD PUSH2 0x2179 JUMP JUMPDEST PUSH1 0x1 DUP10 ADD PUSH2 0x26F8 JUMP JUMPDEST PUSH1 0x20 SWAP1 PUSH1 0x1F DUP4 GT PUSH1 0x1 EQ PUSH2 0xCEB JUMPI PUSH2 0x823 SWAP3 SWAP2 PUSH1 0x0 SWAP2 DUP4 PUSH2 0xCE0 JUMPI POP POP DUP2 PUSH1 0x1 SHL SWAP2 PUSH1 0x0 NOT SWAP1 PUSH1 0x3 SHL SHR NOT AND OR SWAP1 JUMP JUMPDEST PUSH1 0x1 DUP6 ADD SSTORE JUMPDEST PUSH1 0x2 DUP5 ADD SWAP2 PUSH1 0x7 PUSH1 0x1 DUP1 PUSH1 0xA0 SHL SUB SWAP6 DUP7 PUSH1 0x40 DUP5 ADD MLOAD AND SWAP5 PUSH12 0xFFFFFFFFFFFFFFFFFFFFFFFF PUSH1 0xA0 SHL SWAP6 DUP7 DUP3 SLOAD AND OR SWAP1 SSTORE PUSH1 0x60 DUP4 ADD MLOAD PUSH1 0x3 DUP3 ADD SSTORE PUSH1 0x80 DUP4 ADD MLOAD PUSH1 0x4 DUP3 ADD SSTORE PUSH1 0xA0 DUP4 ADD MLOAD PUSH1 0x5 DUP3 ADD SSTORE PUSH1 0xC0 DUP4 ADD MLOAD PUSH1 0x6 DUP3 ADD SSTORE ADD SWAP2 DUP2 ADD MLOAD SWAP1 PUSH1 0x3 DUP3 LT ISZERO PUSH2 0x56C JUMPI PUSH2 0x89C PUSH2 0x100 SWAP3 DUP5 PUSH2 0x284E JUMP JUMPDEST ADD MLOAD PUSH1 0x4 DUP2 LT ISZERO PUSH2 0x56C JUMPI PUSH2 0x8B0 SWAP2 PUSH2 0x26BD JUMP JUMPDEST CALLER PUSH1 0x0 MSTORE PUSH1 0xF PUSH1 0x20 MSTORE DUP5 PUSH1 0x40 PUSH1 0x0 KECCAK256 SSTORE PUSH1 0x10 PUSH1 0x20 MSTORE PUSH1 0x40 PUSH1 0x0 KECCAK256 PUSH1 0x1 PUSH1 0xFF NOT DUP3 SLOAD AND OR SWAP1 SSTORE PUSH1 0x40 MLOAD SWAP3 PUSH2 0x8E2 DUP5 PUSH2 0x21D0 JUMP JUMPDEST PUSH1 0x0 DUP5 MSTORE CALLER ISZERO PUSH2 0xCC7 JUMPI DUP6 PUSH1 0x0 MSTORE PUSH1 0x2 PUSH1 0x20 MSTORE PUSH1 0x40 PUSH1 0x0 KECCAK256 SLOAD AND DUP1 ISZERO DUP1 ISZERO SWAP3 DUP4 PUSH2 0xC90 JUMPI JUMPDEST CALLER PUSH1 0x0 MSTORE PUSH1 0x3 PUSH1 0x20 MSTORE PUSH1 0x40 PUSH1 0x0 KECCAK256 PUSH1 0x1 DUP2 SLOAD ADD SWAP1 SSTORE DUP8 PUSH1 0x0 MSTORE PUSH1 0x2 PUSH1 0x20 MSTORE PUSH1 0x40 PUSH1 0x0 KECCAK256 SWAP1 CALLER SWAP1 DUP3 SLOAD AND OR SWAP1 SSTORE DUP7 CALLER DUP4 PUSH32 0xDDF252AD1BE2C89B69C2B068FC378DAA952BA7F163C4A11628F55A4DF523B3EF PUSH1 0x0 DUP1 LOG4 ISZERO PUSH2 0xC09 JUMPI PUSH1 0x8 SLOAD DUP7 PUSH1 0x0 MSTORE PUSH1 0x9 PUSH1 0x20 MSTORE DUP1 PUSH1 0x40 PUSH1 0x0 KECCAK256 SSTORE PUSH1 0x1 PUSH1 0x40 SHL DUP2 LT ISZERO PUSH2 0xBF3 JUMPI DUP7 PUSH2 0x993 DUP3 PUSH1 0x1 PUSH2 0x9AC SWAP5 ADD PUSH1 0x8 SSTORE PUSH2 0x2686 JUMP JUMPDEST SWAP1 SWAP2 SWAP1 DUP3 SLOAD SWAP1 PUSH1 0x3 SHL SWAP2 DUP3 SHL SWAP2 PUSH1 0x0 NOT SWAP1 SHL NOT AND OR SWAP1 SSTORE JUMP JUMPDEST CALLER SUB PUSH2 0xBAE JUMPI JUMPDEST PUSH2 0xB95 JUMPI DUP4 SWAP2 CALLER EXTCODESIZE PUSH2 0xAA0 JUMPI JUMPDEST POP PUSH2 0x9F8 PUSH32 0xAD4F4FE2E3781F239A4FD5FC6B57837F9B422262490C3E9A772135BDDA8C6D06 SWAP2 PUSH1 0x40 MLOAD SWAP5 PUSH1 0x60 DUP7 MSTORE PUSH1 0x60 DUP7 ADD SWAP2 PUSH2 0x278F JUMP JUMPDEST SWAP3 PUSH2 0xA08 PUSH1 0x20 DUP3 ADD PUSH1 0x44 CALLDATALOAD PUSH2 0x216C JUMP JUMPDEST TIMESTAMP PUSH1 0x40 DUP3 ADD MSTORE DUP1 CALLER SWAP5 SUB SWAP1 LOG3 PUSH1 0x12 SLOAD DUP1 CALLVALUE GT PUSH2 0xA2F JUMPI JUMPDEST PUSH1 0x20 DUP3 PUSH1 0x1 PUSH1 0xB SSTORE PUSH1 0x40 MLOAD SWAP1 DUP2 MSTORE RETURN JUMPDEST CALLVALUE SUB CALLVALUE DUP2 GT PUSH2 0xA8A JUMPI PUSH1 0x0 DUP1 DUP1 DUP1 SWAP4 CALLER GAS CALL PUSH2 0xA49 PUSH2 0x2656 JUMP JUMPDEST POP ISZERO PUSH2 0xA55 JUMPI DUP2 PUSH2 0xA1F JUMP JUMPDEST PUSH1 0x40 MLOAD PUSH3 0x461BCD PUSH1 0xE5 SHL DUP2 MSTORE PUSH1 0x20 PUSH1 0x4 DUP3 ADD MSTORE PUSH1 0xD PUSH1 0x24 DUP3 ADD MSTORE PUSH13 0x1499599D5B990819985A5B1959 PUSH1 0x9A SHL PUSH1 0x44 DUP3 ADD MSTORE PUSH1 0x64 SWAP1 REVERT JUMPDEST PUSH4 0x4E487B71 PUSH1 0xE0 SHL PUSH1 0x0 MSTORE PUSH1 0x11 PUSH1 0x4 MSTORE PUSH1 0x24 PUSH1 0x0 REVERT JUMPDEST SWAP1 SWAP2 POP PUSH1 0x40 MLOAD PUSH1 0x20 DUP2 DUP1 PUSH2 0xADD PUSH4 0xA85BD01 PUSH1 0xE1 SHL SWAP6 DUP7 DUP4 MSTORE CALLER PUSH1 0x4 DUP5 ADD MSTORE PUSH1 0x0 PUSH1 0x24 DUP5 ADD MSTORE DUP10 PUSH1 0x44 DUP5 ADD MSTORE PUSH1 0x80 PUSH1 0x64 DUP5 ADD MSTORE PUSH1 0x84 DUP4 ADD SWAP1 PUSH2 0x20BE JUMP JUMPDEST SUB DUP2 PUSH1 0x0 CALLER GAS CALL PUSH1 0x0 SWAP2 DUP2 PUSH2 0xB50 JUMPI JUMPDEST POP PUSH2 0xB1F JUMPI PUSH2 0xAFA PUSH2 0x2656 JUMP JUMPDEST DUP1 MLOAD SWAP1 DUP2 PUSH2 0xB1A JUMPI PUSH1 0x40 MLOAD PUSH4 0x32505749 PUSH1 0xE1 SHL DUP2 MSTORE CALLER PUSH1 0x4 DUP3 ADD MSTORE PUSH1 0x24 SWAP1 REVERT JUMPDEST PUSH1 0x20 ADD REVERT JUMPDEST PUSH1 0x1 PUSH1 0x1 PUSH1 0xE0 SHL SUB NOT AND SUB PUSH2 0xB38 JUMPI DUP3 SWAP1 PUSH2 0x9F8 PUSH2 0x9C0 JUMP JUMPDEST PUSH1 0x40 MLOAD PUSH4 0x32505749 PUSH1 0xE1 SHL DUP2 MSTORE CALLER PUSH1 0x4 DUP3 ADD MSTORE PUSH1 0x24 SWAP1 REVERT JUMPDEST SWAP1 SWAP2 POP PUSH1 0x20 DUP2 RETURNDATASIZE PUSH1 0x20 GT PUSH2 0xB8D JUMPI JUMPDEST DUP2 PUSH2 0xB6C PUSH1 0x20 SWAP4 DUP4 PUSH2 0x21EC JUMP JUMPDEST DUP2 ADD SUB SLT PUSH2 0x2AC JUMPI MLOAD PUSH1 0x1 PUSH1 0x1 PUSH1 0xE0 SHL SUB NOT DUP2 AND DUP2 SUB PUSH2 0x2AC JUMPI SWAP1 DUP7 PUSH2 0xAED JUMP JUMPDEST RETURNDATASIZE SWAP2 POP PUSH2 0xB5F JUMP JUMPDEST PUSH1 0x40 MLOAD PUSH4 0x39E35637 PUSH1 0xE1 SHL DUP2 MSTORE PUSH1 0x0 PUSH1 0x4 DUP3 ADD MSTORE PUSH1 0x24 SWAP1 REVERT JUMPDEST PUSH2 0xBB7 CALLER PUSH2 0x27B0 JUMP JUMPDEST PUSH1 0x0 NOT DUP2 ADD SWAP1 DUP2 GT PUSH2 0xA8A JUMPI CALLER PUSH1 0x0 MSTORE PUSH1 0x6 PUSH1 0x20 MSTORE PUSH1 0x40 PUSH1 0x0 KECCAK256 DUP2 PUSH1 0x0 MSTORE PUSH1 0x20 MSTORE DUP6 PUSH1 0x40 PUSH1 0x0 KECCAK256 SSTORE DUP6 PUSH1 0x0 MSTORE PUSH1 0x7 PUSH1 0x20 MSTORE PUSH1 0x40 PUSH1 0x0 KECCAK256 SSTORE PUSH2 0x9B3 JUMP JUMPDEST PUSH4 0x4E487B71 PUSH1 0xE0 SHL PUSH1 0x0 MSTORE PUSH1 0x41 PUSH1 0x4 MSTORE PUSH1 0x24 PUSH1 0x0 REVERT JUMPDEST CALLER DUP2 EQ PUSH2 0x9AC JUMPI PUSH2 0xC19 DUP2 PUSH2 0x27B0 JUMP JUMPDEST DUP7 PUSH1 0x0 MSTORE PUSH1 0x7 PUSH1 0x20 MSTORE PUSH1 0x40 PUSH1 0x0 KECCAK256 SLOAD SWAP1 DUP3 PUSH1 0x0 MSTORE PUSH1 0x6 PUSH1 0x20 MSTORE PUSH1 0x40 PUSH1 0x0 KECCAK256 SWAP2 DUP2 DUP2 SUB PUSH2 0xC63 JUMPI JUMPDEST POP DUP8 PUSH1 0x0 MSTORE PUSH1 0x7 PUSH1 0x20 MSTORE PUSH1 0x0 PUSH1 0x40 DUP2 KECCAK256 SSTORE PUSH1 0x0 MSTORE PUSH1 0x20 MSTORE PUSH1 0x0 PUSH1 0x40 DUP2 KECCAK256 SSTORE PUSH2 0x9AC JUMP JUMPDEST DUP2 PUSH1 0x0 MSTORE DUP3 PUSH1 0x20 MSTORE PUSH1 0x40 PUSH1 0x0 KECCAK256 SLOAD DUP2 PUSH1 0x0 MSTORE DUP1 PUSH1 0x40 PUSH1 0x0 KECCAK256 SSTORE PUSH1 0x0 MSTORE PUSH1 0x7 PUSH1 0x20 MSTORE PUSH1 0x40 PUSH1 0x0 KECCAK256 SSTORE DUP9 PUSH2 0xC40 JUMP JUMPDEST PUSH1 0x0 DUP9 DUP2 MSTORE PUSH1 0x4 PUSH1 0x20 MSTORE PUSH1 0x40 SWAP1 KECCAK256 DUP1 SLOAD PUSH1 0x1 PUSH1 0x1 PUSH1 0xA0 SHL SUB NOT AND SWAP1 SSTORE DUP3 PUSH1 0x0 MSTORE PUSH1 0x3 PUSH1 0x20 MSTORE PUSH1 0x40 PUSH1 0x0 KECCAK256 PUSH1 0x0 NOT DUP2 SLOAD ADD SWAP1 SSTORE PUSH2 0x907 JUMP JUMPDEST PUSH1 0x40 MLOAD PUSH4 0x32505749 PUSH1 0xE1 SHL DUP2 MSTORE PUSH1 0x0 PUSH1 0x4 DUP3 ADD MSTORE PUSH1 0x24 SWAP1 REVERT JUMPDEST ADD MLOAD SWAP1 POP DUP10 DUP1 PUSH2 0x7AA JUMP JUMPDEST SWAP2 SWAP1 PUSH1 0x1 DUP8 ADD PUSH1 0x0 MSTORE PUSH1 0x20 PUSH1 0x0 KECCAK256 SWAP1 PUSH1 0x0 SWAP4 JUMPDEST PUSH1 0x1F NOT DUP5 AND DUP6 LT PUSH2 0xD42 JUMPI PUSH1 0x1 SWAP5 POP DUP4 PUSH1 0x1F NOT DUP2 AND LT PUSH2 0xD29 JUMPI JUMPDEST POP POP POP DUP2 SHL ADD PUSH1 0x1 DUP6 ADD SSTORE PUSH2 0x829 JUMP JUMPDEST ADD MLOAD PUSH1 0x0 NOT PUSH1 0xF8 DUP5 PUSH1 0x3 SHL AND SHR NOT AND SWAP1 SSTORE DUP9 DUP1 DUP1 PUSH2 0xD19 JUMP JUMPDEST DUP2 DUP2 ADD MLOAD DUP4 SSTORE PUSH1 0x20 SWAP5 DUP6 ADD SWAP5 PUSH1 0x1 SWAP1 SWAP4 ADD SWAP3 SWAP1 SWAP2 ADD SWAP1 PUSH2 0xCFE JUMP JUMPDEST SWAP1 PUSH1 0x1F NOT DUP4 AND SWAP2 DUP8 PUSH1 0x0 MSTORE PUSH1 0x20 PUSH1 0x0 KECCAK256 SWAP3 PUSH1 0x0 JUMPDEST DUP2 DUP2 LT PUSH2 0xDAD JUMPI POP SWAP1 DUP5 PUSH1 0x1 SWAP6 SWAP5 SWAP4 SWAP3 LT PUSH2 0xD94 JUMPI JUMPDEST POP POP POP DUP2 SHL ADD DUP5 SSTORE PUSH2 0x7C2 JUMP JUMPDEST ADD MLOAD PUSH1 0x0 NOT PUSH1 0xF8 DUP5 PUSH1 0x3 SHL AND SHR NOT AND SWAP1 SSTORE DUP9 DUP1 DUP1 PUSH2 0xD87 JUMP JUMPDEST SWAP3 SWAP4 PUSH1 0x20 PUSH1 0x1 DUP2 SWAP3 DUP8 DUP7 ADD MLOAD DUP2 SSTORE ADD SWAP6 ADD SWAP4 ADD PUSH2 0xD71 JUMP JUMPDEST PUSH1 0x40 MLOAD PUSH3 0x461BCD PUSH1 0xE5 SHL DUP2 MSTORE PUSH1 0x20 PUSH1 0x4 DUP3 ADD MSTORE PUSH1 0x13 PUSH1 0x24 DUP3 ADD MSTORE PUSH19 0x92DCECC2D8D2C840DCC2DACA40D8CADCCEE8D PUSH1 0x6B SHL PUSH1 0x44 DUP3 ADD MSTORE PUSH1 0x64 SWAP1 REVERT JUMPDEST POP PUSH1 0x40 DUP6 GT ISZERO PUSH2 0x6E5 JUMP JUMPDEST PUSH1 0x40 MLOAD PUSH3 0x461BCD PUSH1 0xE5 SHL DUP2 MSTORE PUSH1 0x20 PUSH1 0x4 DUP3 ADD MSTORE PUSH1 0x12 PUSH1 0x24 DUP3 ADD MSTORE PUSH18 0x13585E081859D95B9D1CC81C995858DA1959 PUSH1 0x72 SHL PUSH1 0x44 DUP3 ADD MSTORE PUSH1 0x64 SWAP1 REVERT JUMPDEST PUSH1 0x40 MLOAD PUSH3 0x461BCD PUSH1 0xE5 SHL DUP2 MSTORE PUSH1 0x20 PUSH1 0x4 DUP3 ADD MSTORE PUSH1 0x1D PUSH1 0x24 DUP3 ADD MSTORE PUSH32 0x4F70657261746F7220616C72656164792068617320616E206167656E74000000 PUSH1 0x44 DUP3 ADD MSTORE PUSH1 0x64 SWAP1 REVERT JUMPDEST PUSH1 0x40 MLOAD PUSH3 0x461BCD PUSH1 0xE5 SHL DUP2 MSTORE PUSH1 0x20 PUSH1 0x4 DUP3 ADD MSTORE PUSH1 0x1D PUSH1 0x24 DUP3 ADD MSTORE PUSH32 0x496E73756666696369656E7420726567697374726174696F6E20666565000000 PUSH1 0x44 DUP3 ADD MSTORE PUSH1 0x64 SWAP1 REVERT JUMPDEST PUSH1 0x40 MLOAD PUSH4 0x3EE5AEB5 PUSH1 0xE0 SHL DUP2 MSTORE PUSH1 0x4 SWAP1 REVERT JUMPDEST CALLVALUE PUSH2 0x2AC JUMPI PUSH1 0x40 CALLDATASIZE PUSH1 0x3 NOT ADD SLT PUSH2 0x2AC JUMPI PUSH2 0xEFA PUSH2 0x20FE JUMP JUMPDEST PUSH2 0xF02 PUSH2 0x22B3 JUMP JUMPDEST PUSH1 0x1 PUSH1 0x1 PUSH1 0xA0 SHL SUB SWAP1 SWAP2 AND SWAP1 DUP2 ISZERO PUSH2 0xF73 JUMPI CALLER PUSH1 0x0 MSTORE PUSH1 0x5 PUSH1 0x20 MSTORE PUSH1 0x40 PUSH1 0x0 KECCAK256 DUP3 PUSH1 0x0 MSTORE PUSH1 0x20 MSTORE PUSH2 0xF43 DUP2 PUSH1 0x40 PUSH1 0x0 KECCAK256 SWAP1 PUSH1 0xFF DUP1 NOT DUP4 SLOAD AND SWAP2 ISZERO ISZERO AND OR SWAP1 SSTORE JUMP JUMPDEST PUSH1 0x40 MLOAD SWAP1 ISZERO ISZERO DUP2 MSTORE PUSH32 0x17307EAB39AB6107E8899845AD3D59BD9653F200F220920489CA2B5937696C31 PUSH1 0x20 CALLER SWAP3 LOG3 STOP JUMPDEST PUSH1 0x40 MLOAD PUSH4 0xB611743 PUSH1 0xE3 SHL DUP2 MSTORE PUSH1 0x4 DUP2 ADD DUP4 SWAP1 MSTORE PUSH1 0x24 SWAP1 REVERT JUMPDEST CALLVALUE PUSH2 0x2AC JUMPI PUSH1 0x0 CALLDATASIZE PUSH1 0x3 NOT ADD SLT PUSH2 0x2AC JUMPI PUSH1 0x40 MLOAD PUSH1 0x0 PUSH1 0x1 DUP3 PUSH1 0x1 SLOAD SWAP3 PUSH2 0xFB2 DUP5 PUSH2 0x2179 JUMP JUMPDEST SWAP3 DUP4 DUP4 MSTORE PUSH1 0x20 SWAP5 DUP6 PUSH1 0x1 DUP3 AND SWAP2 DUP3 PUSH1 0x0 EQ PUSH2 0x104F JUMPI POP POP PUSH1 0x1 EQ PUSH2 0xFF2 JUMPI JUMPDEST POP PUSH2 0xFDE SWAP3 POP SUB DUP4 PUSH2 0x21EC JUMP JUMPDEST PUSH2 0x3E2 PUSH1 0x40 MLOAD SWAP3 DUP3 DUP5 SWAP4 DUP5 MSTORE DUP4 ADD SWAP1 PUSH2 0x20BE JUMP JUMPDEST DUP5 SWAP2 POP PUSH1 0x1 PUSH1 0x0 MSTORE PUSH32 0xB10E2D527612073B26EECDFD717E6A320CF44B4AFAC2B0732D9FCBE2B7FA0CF6 SWAP1 PUSH1 0x0 SWAP2 JUMPDEST DUP6 DUP4 LT PUSH2 0x1037 JUMPI POP POP PUSH2 0xFDE SWAP4 POP DUP3 ADD ADD DUP6 PUSH2 0xFD1 JUMP JUMPDEST DUP1 SLOAD DUP4 DUP10 ADD DUP6 ADD MSTORE DUP8 SWAP5 POP DUP7 SWAP4 SWAP1 SWAP3 ADD SWAP2 DUP2 ADD PUSH2 0x1020 JUMP JUMPDEST PUSH1 0xFF NOT AND DUP6 DUP3 ADD MSTORE PUSH2 0xFDE SWAP6 ISZERO ISZERO PUSH1 0x5 SHL DUP6 ADD ADD SWAP3 POP DUP8 SWAP2 POP PUSH2 0xFD1 SWAP1 POP JUMP JUMPDEST CALLVALUE PUSH2 0x2AC JUMPI PUSH1 0x0 CALLDATASIZE PUSH1 0x3 NOT ADD SLT PUSH2 0x2AC JUMPI PUSH1 0x20 PUSH1 0xC SLOAD PUSH1 0x40 MLOAD SWAP1 DUP2 MSTORE RETURN JUMPDEST CALLVALUE PUSH2 0x2AC JUMPI PUSH1 0x0 CALLDATASIZE PUSH1 0x3 NOT ADD SLT PUSH2 0x2AC JUMPI PUSH1 0xA SLOAD PUSH1 0x40 MLOAD PUSH1 0x1 PUSH1 0x1 PUSH1 0xA0 SHL SUB SWAP1 SWAP2 AND DUP2 MSTORE PUSH1 0x20 SWAP1 RETURN JUMPDEST CALLVALUE PUSH2 0x2AC JUMPI PUSH1 0x20 CALLDATASIZE PUSH1 0x3 NOT ADD SLT PUSH2 0x2AC JUMPI PUSH1 0x20 PUSH2 0x5CE PUSH1 0x4 CALLDATALOAD PUSH2 0x10DC PUSH1 0xC SLOAD DUP3 LT PUSH2 0x2607 JUMP JUMPDEST PUSH2 0x2809 JUMP JUMPDEST CALLVALUE PUSH2 0x2AC JUMPI PUSH1 0x40 CALLDATASIZE PUSH1 0x3 NOT ADD SLT PUSH2 0x2AC JUMPI PUSH1 0x24 CALLDATALOAD PUSH1 0x4 CALLDATALOAD PUSH1 0x0 MSTORE PUSH1 0xE PUSH1 0x20 MSTORE PUSH1 0x40 PUSH1 0x0 KECCAK256 DUP1 SLOAD DUP3 LT ISZERO PUSH2 0x2AC JUMPI PUSH1 0xFF SWAP2 PUSH2 0x111A SWAP2 PUSH2 0x22F0 JUMP JUMPDEST POP DUP1 SLOAD SWAP1 PUSH2 0x115E PUSH1 0x2 PUSH2 0x112F PUSH1 0x1 DUP5 ADD PUSH2 0x220E JUMP JUMPDEST SWAP3 ADD SLOAD SWAP2 PUSH1 0x40 MLOAD SWAP5 DUP6 SWAP5 PUSH1 0x1 DUP1 PUSH1 0xA0 SHL SUB DUP2 AND DUP7 MSTORE PUSH1 0xA0 SHR AND PUSH1 0x20 DUP6 ADD MSTORE PUSH1 0x80 PUSH1 0x40 DUP6 ADD MSTORE PUSH1 0x80 DUP5 ADD SWAP1 PUSH2 0x20BE JUMP JUMPDEST SWAP1 PUSH1 0x60 DUP4 ADD MSTORE SUB SWAP1 RETURN JUMPDEST CALLVALUE PUSH2 0x2AC JUMPI PUSH1 0x20 CALLDATASIZE PUSH1 0x3 NOT ADD SLT PUSH2 0x2AC JUMPI PUSH1 0x1 PUSH1 0x1 PUSH1 0xA0 SHL SUB PUSH2 0x1189 PUSH2 0x20FE JUMP JUMPDEST AND PUSH1 0x0 MSTORE PUSH1 0xF PUSH1 0x20 MSTORE PUSH1 0x20 PUSH1 0x40 PUSH1 0x0 KECCAK256 SLOAD PUSH1 0x40 MLOAD SWAP1 DUP2 MSTORE RETURN JUMPDEST CALLVALUE PUSH2 0x2AC JUMPI PUSH1 0x20 CALLDATASIZE PUSH1 0x3 NOT ADD SLT PUSH2 0x2AC JUMPI PUSH1 0x4 CALLDATALOAD PUSH1 0x0 MSTORE PUSH1 0xE PUSH1 0x20 MSTORE PUSH1 0x20 PUSH1 0x40 PUSH1 0x0 KECCAK256 SLOAD PUSH1 0x40 MLOAD SWAP1 DUP2 MSTORE RETURN JUMPDEST CALLVALUE PUSH2 0x2AC JUMPI PUSH1 0x0 CALLDATASIZE PUSH1 0x3 NOT ADD SLT PUSH2 0x2AC JUMPI PUSH2 0x11E7 PUSH2 0x2925 JUMP JUMPDEST PUSH1 0xA DUP1 SLOAD PUSH1 0x1 PUSH1 0x1 PUSH1 0xA0 SHL SUB NOT DUP2 AND SWAP1 SWAP2 SSTORE PUSH1 0x0 SWAP1 PUSH1 0x1 PUSH1 0x1 PUSH1 0xA0 SHL SUB AND PUSH32 0x8BE0079C531659141344CD1FD0A4F28419497F9722A3DAAFE3B4186F6B6457E0 DUP3 DUP1 LOG3 STOP JUMPDEST CALLVALUE PUSH2 0x2AC JUMPI PUSH1 0x20 CALLDATASIZE PUSH1 0x3 NOT ADD SLT PUSH2 0x2AC JUMPI PUSH1 0x20 PUSH2 0x5CE PUSH2 0x1249 PUSH2 0x20FE JUMP JUMPDEST PUSH2 0x27B0 JUMP JUMPDEST CALLVALUE PUSH2 0x2AC JUMPI PUSH1 0x40 CALLDATASIZE PUSH1 0x3 NOT ADD SLT PUSH2 0x2AC JUMPI PUSH1 0x4 CALLDATALOAD PUSH8 0xFFFFFFFFFFFFFFFF PUSH1 0x24 CALLDATALOAD DUP2 DUP2 GT PUSH2 0x2AC JUMPI PUSH2 0x1283 SWAP1 CALLDATASIZE SWAP1 PUSH1 0x4 ADD PUSH2 0x22C2 JUMP JUMPDEST SWAP2 SWAP1 DUP4 PUSH1 0x0 MSTORE PUSH1 0x20 SWAP2 PUSH1 0xD DUP4 MSTORE PUSH2 0x12AB PUSH1 0x1 DUP1 PUSH1 0xA0 SHL SUB PUSH1 0x2 PUSH1 0x40 PUSH1 0x0 KECCAK256 ADD SLOAD AND CALLER EQ PUSH2 0x274E JUMP JUMPDEST PUSH2 0x12B8 PUSH1 0xC SLOAD DUP7 LT PUSH2 0x2607 JUMP JUMPDEST DUP5 PUSH1 0x0 MSTORE PUSH1 0xD DUP4 MSTORE PUSH1 0x1 DUP1 PUSH1 0x40 PUSH1 0x0 KECCAK256 ADD SWAP2 DUP6 GT PUSH2 0xBF3 JUMPI PUSH2 0x12E4 DUP6 PUSH2 0x12DE DUP5 SLOAD PUSH2 0x2179 JUMP JUMPDEST DUP5 PUSH2 0x26F8 JUMP JUMPDEST PUSH1 0x0 SWAP1 PUSH1 0x1F DUP7 GT PUSH1 0x1 EQ PUSH2 0x1361 JUMPI POP SWAP2 PUSH2 0x1351 SWAP2 PUSH2 0x133D DUP7 DUP1 PUSH32 0x859FAC2FC059A2FA38EFE7236E1C16278C1519298D62DD05582FF7FA392A1045 SWAP9 SWAP8 SWAP7 PUSH1 0x0 SWAP2 PUSH2 0x1356 JUMPI JUMPDEST POP DUP2 PUSH1 0x1 SHL SWAP2 PUSH1 0x0 NOT SWAP1 PUSH1 0x3 SHL SHR NOT AND OR SWAP1 JUMP JUMPDEST SWAP1 SSTORE JUMPDEST PUSH1 0x40 MLOAD SWAP4 DUP4 DUP6 SWAP5 DUP6 MSTORE DUP5 ADD SWAP2 PUSH2 0x278F JUMP JUMPDEST SUB SWAP1 LOG2 STOP JUMPDEST SWAP1 POP DUP5 ADD CALLDATALOAD DUP11 PUSH2 0x1329 JUMP JUMPDEST SWAP1 PUSH1 0x1F NOT DUP7 AND DUP4 PUSH1 0x0 MSTORE DUP6 PUSH1 0x0 KECCAK256 SWAP3 PUSH1 0x0 SWAP1 JUMPDEST DUP3 DUP3 LT PUSH2 0x13D8 JUMPI POP POP SWAP2 PUSH2 0x1351 SWAP4 SWAP2 DUP8 PUSH32 0x859FAC2FC059A2FA38EFE7236E1C16278C1519298D62DD05582FF7FA392A1045 SWAP9 SWAP8 SWAP7 SWAP5 LT PUSH2 0x13BE JUMPI JUMPDEST POP POP PUSH1 0x1 DUP6 DUP2 SHL ADD SWAP1 SSTORE PUSH2 0x1340 JUMP JUMPDEST DUP4 ADD CALLDATALOAD PUSH1 0x0 NOT PUSH1 0x3 DUP9 SWAP1 SHL PUSH1 0xF8 AND SHR NOT AND SWAP1 SSTORE DUP8 DUP1 PUSH2 0x13AF JUMP JUMPDEST DUP7 DUP5 ADD CALLDATALOAD DUP6 SSTORE SWAP4 DUP5 ADD SWAP4 SWAP3 DUP8 ADD SWAP3 SWAP1 DUP8 ADD SWAP1 PUSH2 0x1374 JUMP JUMPDEST CALLVALUE PUSH2 0x2AC JUMPI PUSH1 0x60 CALLDATASIZE PUSH1 0x3 NOT ADD SLT PUSH2 0x2AC JUMPI PUSH1 0x4 CALLDATALOAD PUSH1 0x24 SWAP1 DUP2 CALLDATALOAD SWAP1 PUSH1 0xFF DUP3 AND DUP1 SWAP3 SUB PUSH2 0x2AC JUMPI PUSH8 0xFFFFFFFFFFFFFFFF PUSH1 0x44 CALLDATALOAD DUP2 DUP2 GT PUSH2 0x2AC JUMPI PUSH2 0x1435 SWAP1 CALLDATASIZE SWAP1 PUSH1 0x4 ADD PUSH2 0x22C2 JUMP JUMPDEST PUSH2 0x1442 PUSH1 0xC SLOAD DUP6 LT PUSH2 0x2607 JUMP JUMPDEST PUSH1 0x1 SWAP6 DUP7 DUP7 LT ISZERO DUP1 PUSH2 0x16DE JUMPI JUMPDEST ISZERO PUSH2 0x16A6 JUMPI DUP5 PUSH1 0x0 MSTORE PUSH1 0x20 SWAP4 PUSH1 0xD DUP6 MSTORE PUSH1 0x1 DUP1 PUSH1 0xA0 SHL SUB SWAP2 DUP3 PUSH1 0x2 PUSH1 0x40 PUSH1 0x0 KECCAK256 ADD SLOAD AND CALLER EQ PUSH2 0x1663 JUMPI DUP7 PUSH1 0x0 MSTORE PUSH1 0xE DUP7 MSTORE PUSH1 0x40 PUSH1 0x0 KECCAK256 SWAP4 PUSH1 0x40 MLOAD SWAP6 PUSH1 0x80 DUP8 ADD DUP8 DUP2 LT DUP6 DUP3 GT OR PUSH2 0x164E JUMPI SWAP1 PUSH2 0x14B2 SWAP2 PUSH1 0x40 MSTORE CALLER DUP9 MSTORE DUP9 DUP9 ADD SWAP3 DUP12 DUP5 MSTORE CALLDATASIZE SWAP2 PUSH2 0x233E JUMP JUMPDEST SWAP4 PUSH1 0x40 DUP8 ADD SWAP5 DUP6 MSTORE PUSH1 0x60 DUP8 ADD SWAP6 TIMESTAMP DUP8 MSTORE DUP1 SLOAD SWAP1 PUSH1 0x1 PUSH1 0x40 SHL DUP3 LT ISZERO PUSH2 0x1639 JUMPI SWAP1 PUSH2 0x14E0 SWAP2 DUP14 DUP3 ADD DUP2 SSTORE PUSH2 0x22F0 JUMP JUMPDEST SWAP8 SWAP1 SWAP8 PUSH2 0x1624 JUMPI MLOAD DUP8 SLOAD SWAP3 MLOAD PUSH1 0x1 PUSH1 0x1 PUSH1 0xA8 SHL SUB NOT SWAP1 SWAP4 AND SWAP2 AND OR PUSH1 0xA0 SWAP2 SWAP1 SWAP2 SHL PUSH1 0xFF PUSH1 0xA0 SHL AND OR DUP6 SSTORE SWAP2 MLOAD DUP1 MLOAD DUP10 DUP7 ADD SWAP4 SWAP1 SWAP3 DUP4 GT PUSH2 0x1610 JUMPI POP PUSH2 0x152F DUP3 PUSH2 0x1529 DUP6 SLOAD PUSH2 0x2179 JUMP JUMPDEST DUP6 PUSH2 0x26F8 JUMP JUMPDEST DUP6 SWAP9 PUSH1 0x1F DUP4 GT PUSH1 0x1 EQ PUSH2 0x15AB JUMPI POP SWAP1 DUP1 PUSH1 0x2 SWAP6 SWAP7 SWAP8 SWAP9 SWAP10 PUSH2 0x1566 SWAP4 PUSH1 0x0 SWAP3 PUSH2 0x15A0 JUMPI POP POP DUP2 PUSH1 0x1 SHL SWAP2 PUSH1 0x0 NOT SWAP1 PUSH1 0x3 SHL SHR NOT AND OR SWAP1 JUMP JUMPDEST SWAP1 SSTORE JUMPDEST MLOAD SWAP2 ADD SSTORE PUSH1 0x40 MLOAD SWAP3 DUP4 MSTORE TIMESTAMP SWAP1 DUP4 ADD MSTORE PUSH32 0x521F7611175A9FDAE7FA5D66CDF61D0556302D1845F8FED36EE72150778E2D49 PUSH1 0x40 CALLER SWAP4 LOG3 STOP JUMPDEST ADD MLOAD SWAP1 POP DUP11 DUP1 PUSH2 0x7AA JUMP JUMPDEST SWAP2 SWAP1 PUSH1 0x1F NOT DUP3 AND SWAP10 DUP5 PUSH1 0x0 MSTORE DUP8 PUSH1 0x0 KECCAK256 SWAP2 PUSH1 0x0 JUMPDEST DUP13 DUP2 LT PUSH2 0x15FB JUMPI POP DUP4 PUSH1 0x2 SWAP9 SWAP10 SWAP11 SWAP12 SWAP13 LT PUSH2 0x15E2 JUMPI JUMPDEST POP POP POP DUP2 SHL ADD SWAP1 SSTORE PUSH2 0x1569 JUMP JUMPDEST ADD MLOAD PUSH1 0x0 NOT PUSH1 0xF8 DUP5 PUSH1 0x3 SHL AND SHR NOT AND SWAP1 SSTORE DUP10 DUP1 DUP1 PUSH2 0x15D5 JUMP JUMPDEST DUP2 DUP4 ADD MLOAD DUP5 SSTORE SWAP3 DUP6 ADD SWAP3 SWAP2 DUP10 ADD SWAP2 DUP10 ADD PUSH2 0x15BF JUMP JUMPDEST PUSH4 0x4E487B71 PUSH1 0xE0 SHL PUSH1 0x0 SWAP1 DUP2 MSTORE PUSH1 0x41 PUSH1 0x4 MSTORE REVERT JUMPDEST DUP4 PUSH4 0x4E487B71 PUSH1 0xE0 SHL PUSH1 0x0 MSTORE PUSH1 0x0 PUSH1 0x4 MSTORE PUSH1 0x0 REVERT JUMPDEST DUP5 PUSH4 0x4E487B71 PUSH1 0xE0 SHL PUSH1 0x0 MSTORE PUSH1 0x41 PUSH1 0x4 MSTORE PUSH1 0x0 REVERT JUMPDEST DUP4 PUSH4 0x4E487B71 PUSH1 0xE0 SHL PUSH1 0x0 MSTORE PUSH1 0x41 PUSH1 0x4 MSTORE PUSH1 0x0 REVERT JUMPDEST DUP6 PUSH1 0x17 PUSH1 0x64 SWAP3 PUSH1 0x40 MLOAD SWAP3 PUSH3 0x461BCD PUSH1 0xE5 SHL DUP5 MSTORE PUSH1 0x4 DUP5 ADD MSTORE DUP3 ADD MSTORE PUSH32 0x43616E6E6F7420726576696577206F776E206167656E74000000000000000000 PUSH1 0x44 DUP3 ADD MSTORE REVERT JUMPDEST PUSH1 0x64 SWAP1 PUSH1 0x11 PUSH1 0x40 MLOAD SWAP2 PUSH3 0x461BCD PUSH1 0xE5 SHL DUP4 MSTORE PUSH1 0x20 PUSH1 0x4 DUP5 ADD MSTORE DUP3 ADD MSTORE PUSH17 0x53636F7265206D75737420626520312D35 PUSH1 0x78 SHL PUSH1 0x44 DUP3 ADD MSTORE REVERT JUMPDEST POP PUSH1 0x5 DUP7 GT ISZERO PUSH2 0x144F JUMP JUMPDEST CALLVALUE PUSH2 0x2AC JUMPI PUSH1 0x20 CALLDATASIZE PUSH1 0x3 NOT ADD SLT PUSH2 0x2AC JUMPI PUSH1 0x20 PUSH2 0x1707 PUSH1 0x4 CALLDATALOAD PUSH2 0x28EA JUMP JUMPDEST PUSH1 0x40 MLOAD PUSH1 0x1 PUSH1 0x1 PUSH1 0xA0 SHL SUB SWAP1 SWAP2 AND DUP2 MSTORE RETURN JUMPDEST CALLVALUE PUSH2 0x2AC JUMPI PUSH1 0x60 CALLDATASIZE PUSH1 0x3 NOT ADD SLT PUSH2 0x2AC JUMPI PUSH1 0x4 CALLDATALOAD PUSH2 0x1735 PUSH2 0x22B3 JUMP JUMPDEST CALLER PUSH1 0x0 MSTORE PUSH1 0x11 PUSH1 0x20 MSTORE PUSH1 0xFF PUSH1 0x40 PUSH1 0x0 KECCAK256 SLOAD AND ISZERO PUSH2 0x17E8 JUMPI PUSH1 0x60 PUSH32 0xE2B86BE09EDF0C2A3958669B7B3DC7AB7B735A2C55BB5AD1539E2400DC0EE767 SWAP2 PUSH2 0x177D PUSH1 0xC SLOAD DUP6 LT PUSH2 0x2607 JUMP JUMPDEST DUP4 PUSH1 0x0 MSTORE PUSH1 0xD PUSH1 0x20 MSTORE PUSH1 0x40 PUSH1 0x0 KECCAK256 PUSH1 0x4 DUP2 ADD SWAP2 PUSH2 0x179A DUP4 SLOAD PUSH2 0x26DC JUMP JUMPDEST DUP1 SWAP4 SSTORE PUSH2 0x17C0 JUMPI JUMPDEST PUSH1 0x6 PUSH1 0x5 DUP3 ADD SLOAD SWAP2 ADD SLOAD SWAP1 PUSH1 0x40 MLOAD SWAP3 DUP4 MSTORE PUSH1 0x20 DUP4 ADD MSTORE PUSH1 0x40 DUP3 ADD MSTORE LOG2 STOP JUMPDEST PUSH1 0x5 DUP2 ADD PUSH2 0x17CE DUP2 SLOAD PUSH2 0x26DC JUMP JUMPDEST SWAP1 SSTORE PUSH1 0x6 DUP2 ADD PUSH2 0x17E1 PUSH1 0x44 CALLDATALOAD DUP3 SLOAD PUSH2 0x26EB JUMP JUMPDEST SWAP1 SSTORE PUSH2 0x17A2 JUMP JUMPDEST PUSH1 0x40 MLOAD PUSH3 0x461BCD PUSH1 0xE5 SHL DUP2 MSTORE PUSH1 0x20 PUSH1 0x4 DUP3 ADD MSTORE PUSH1 0x14 PUSH1 0x24 DUP3 ADD MSTORE PUSH20 0x139BDD08185D5D1A1BDC9A5E9959081D985D5B1D PUSH1 0x62 SHL PUSH1 0x44 DUP3 ADD MSTORE PUSH1 0x64 SWAP1 REVERT JUMPDEST CALLVALUE PUSH2 0x2AC JUMPI PUSH1 0x40 CALLDATASIZE PUSH1 0x3 NOT ADD SLT PUSH2 0x2AC JUMPI PUSH1 0x4 CALLDATALOAD PUSH1 0x24 CALLDATALOAD PUSH1 0x4 DUP2 LT ISZERO PUSH2 0x2AC JUMPI PUSH2 0x184C PUSH2 0x2925 JUMP JUMPDEST PUSH2 0x1859 PUSH1 0xC SLOAD DUP4 LT PUSH2 0x2607 JUMP JUMPDEST DUP2 PUSH1 0x0 MSTORE PUSH1 0xD PUSH1 0x20 MSTORE PUSH1 0xFF PUSH1 0x7 PUSH1 0x40 PUSH1 0x0 KECCAK256 ADD SLOAD PUSH1 0x8 SHR AND SWAP1 PUSH1 0x4 DUP3 LT ISZERO PUSH2 0x56C JUMPI DUP2 PUSH1 0xFF DUP3 AND GT ISZERO PUSH2 0x18DD JUMPI PUSH32 0x2E988DE19314500DA630A0D5E206508978DAC34B0010F6F90DA82CA0884BCA67 SWAP2 PUSH2 0x4F7 PUSH1 0x40 SWAP3 DUP6 PUSH1 0x0 MSTORE PUSH1 0xD PUSH1 0x20 MSTORE PUSH2 0x18C7 DUP2 PUSH1 0x7 DUP7 PUSH1 0x0 KECCAK256 ADD PUSH2 0x26BD JUMP JUMPDEST PUSH2 0x18D3 DUP5 MLOAD DUP1 SWAP5 PUSH2 0x216C JUMP JUMPDEST PUSH1 0x20 DUP4 ADD SWAP1 PUSH2 0x216C JUMP JUMPDEST PUSH1 0x40 MLOAD PUSH3 0x461BCD PUSH1 0xE5 SHL DUP2 MSTORE PUSH1 0x20 PUSH1 0x4 DUP3 ADD MSTORE PUSH1 0x15 PUSH1 0x24 DUP3 ADD MSTORE PUSH21 0x21B0B71037B7363C903AB833B930B232903A34B2B9 PUSH1 0x59 SHL PUSH1 0x44 DUP3 ADD MSTORE PUSH1 0x64 SWAP1 REVERT JUMPDEST CALLVALUE PUSH2 0x2AC JUMPI PUSH1 0x20 CALLDATASIZE PUSH1 0x3 NOT ADD SLT PUSH2 0x2AC JUMPI PUSH2 0x199D SWAP1 PUSH1 0x4 CALLDATALOAD PUSH1 0x0 MSTORE PUSH1 0xD PUSH1 0x20 MSTORE PUSH1 0x40 PUSH1 0x0 KECCAK256 PUSH2 0x3E2 PUSH2 0x194B DUP3 PUSH2 0x220E JUMP JUMPDEST SWAP3 PUSH2 0x19D0 PUSH2 0x195B PUSH1 0x1 DUP6 ADD PUSH2 0x220E JUMP JUMPDEST SWAP2 PUSH1 0x1 DUP1 PUSH1 0xA0 SHL SUB PUSH1 0x2 DUP7 ADD SLOAD AND SWAP5 PUSH1 0x3 DUP2 ADD SLOAD PUSH1 0x4 DUP3 ADD SLOAD PUSH1 0x5 DUP4 ADD SLOAD SWAP2 PUSH2 0x19AB PUSH1 0x7 PUSH1 0x6 DUP7 ADD SLOAD SWAP6 ADD SLOAD SWAP8 PUSH1 0x40 MLOAD SWAP13 DUP14 SWAP13 DUP14 PUSH2 0x120 SWAP1 DUP2 DUP2 MSTORE ADD SWAP1 PUSH2 0x20BE JUMP JUMPDEST DUP13 DUP2 SUB PUSH1 0x20 DUP15 ADD MSTORE SWAP1 PUSH2 0x20BE JUMP JUMPDEST SWAP9 PUSH1 0x40 DUP12 ADD MSTORE PUSH1 0x60 DUP11 ADD MSTORE PUSH1 0x80 DUP10 ADD MSTORE PUSH1 0xA0 DUP9 ADD MSTORE PUSH1 0xC0 DUP8 ADD MSTORE DUP6 ADD PUSH1 0xFF DUP4 AND PUSH2 0x215F JUMP JUMPDEST PUSH1 0xFF PUSH2 0x100 DUP6 ADD SWAP2 PUSH1 0x8 SHR AND PUSH2 0x216C JUMP JUMPDEST CALLVALUE PUSH2 0x2AC JUMPI PUSH1 0x20 CALLDATASIZE PUSH1 0x3 NOT ADD SLT PUSH2 0x2AC JUMPI PUSH1 0x4 CALLDATALOAD PUSH1 0x8 SLOAD DUP2 LT ISZERO PUSH2 0x1A18 JUMPI PUSH2 0x1A0A PUSH1 0x20 SWAP2 PUSH2 0x2686 JUMP JUMPDEST SWAP1 SLOAD PUSH1 0x40 MLOAD SWAP2 PUSH1 0x3 SHL SHR DUP2 MSTORE RETURN JUMPDEST PUSH1 0x44 SWAP1 PUSH1 0x40 MLOAD SWAP1 PUSH4 0x295F44F7 PUSH1 0xE2 SHL DUP3 MSTORE PUSH1 0x0 PUSH1 0x4 DUP4 ADD MSTORE PUSH1 0x24 DUP3 ADD MSTORE REVERT JUMPDEST CALLVALUE PUSH2 0x2AC JUMPI PUSH1 0x20 CALLDATASIZE PUSH1 0x3 NOT ADD SLT PUSH2 0x2AC JUMPI PUSH1 0x1 PUSH1 0x1 PUSH1 0xA0 SHL SUB PUSH2 0x1A58 PUSH2 0x20FE JUMP JUMPDEST AND PUSH1 0x0 MSTORE PUSH1 0x10 PUSH1 0x20 MSTORE PUSH1 0x20 PUSH1 0xFF PUSH1 0x40 PUSH1 0x0 KECCAK256 SLOAD AND PUSH1 0x40 MLOAD SWAP1 ISZERO ISZERO DUP2 MSTORE RETURN JUMPDEST CALLVALUE PUSH2 0x2AC JUMPI PUSH1 0x0 CALLDATASIZE PUSH1 0x3 NOT ADD SLT PUSH2 0x2AC JUMPI PUSH2 0x1A8F PUSH2 0x2925 JUMP JUMPDEST SELFBALANCE DUP1 ISZERO PUSH2 0x1AF6 JUMPI PUSH1 0xA SLOAD PUSH1 0x0 SWAP2 DUP3 SWAP2 DUP3 SWAP2 DUP3 SWAP2 PUSH1 0x1 PUSH1 0x1 PUSH1 0xA0 SHL SUB AND GAS CALL PUSH2 0x1AB5 PUSH2 0x2656 JUMP JUMPDEST POP ISZERO PUSH2 0x1ABD JUMPI STOP JUMPDEST PUSH1 0x40 MLOAD PUSH3 0x461BCD PUSH1 0xE5 SHL DUP2 MSTORE PUSH1 0x20 PUSH1 0x4 DUP3 ADD MSTORE PUSH1 0x11 PUSH1 0x24 DUP3 ADD MSTORE PUSH17 0x15DA5D1A191C985DD85B0819985A5B1959 PUSH1 0x7A SHL PUSH1 0x44 DUP3 ADD MSTORE PUSH1 0x64 SWAP1 REVERT JUMPDEST PUSH1 0x40 MLOAD PUSH3 0x461BCD PUSH1 0xE5 SHL DUP2 MSTORE PUSH1 0x20 PUSH1 0x4 DUP3 ADD MSTORE PUSH1 0x13 PUSH1 0x24 DUP3 ADD MSTORE PUSH19 0x4E6F206665657320746F207769746864726177 PUSH1 0x68 SHL PUSH1 0x44 DUP3 ADD MSTORE PUSH1 0x64 SWAP1 REVERT JUMPDEST CALLVALUE PUSH2 0x2AC JUMPI PUSH2 0x642 PUSH2 0x1B42 CALLDATASIZE PUSH2 0x212A JUMP JUMPDEST SWAP1 PUSH1 0x40 MLOAD SWAP3 PUSH2 0x1B50 DUP5 PUSH2 0x21D0 JUMP JUMPDEST PUSH1 0x0 DUP5 MSTORE PUSH2 0x63C DUP4 DUP4 DUP4 PUSH2 0x2375 JUMP JUMPDEST CALLVALUE PUSH2 0x2AC JUMPI PUSH1 0x20 CALLDATASIZE PUSH1 0x3 NOT ADD SLT PUSH2 0x2AC JUMPI PUSH1 0x1 PUSH1 0x1 PUSH1 0xA0 SHL SUB PUSH2 0x1B80 PUSH2 0x20FE JUMP JUMPDEST AND PUSH1 0x0 MSTORE PUSH1 0x11 PUSH1 0x20 MSTORE PUSH1 0x20 PUSH1 0xFF PUSH1 0x40 PUSH1 0x0 KECCAK256 SLOAD AND PUSH1 0x40 MLOAD SWAP1 ISZERO ISZERO DUP2 MSTORE RETURN JUMPDEST CALLVALUE PUSH2 0x2AC JUMPI PUSH1 0x20 CALLDATASIZE PUSH1 0x3 NOT ADD SLT PUSH2 0x2AC JUMPI PUSH1 0x4 CALLDATALOAD PUSH2 0x1BBF PUSH1 0xC SLOAD DUP3 LT PUSH2 0x2607 JUMP JUMPDEST PUSH1 0x0 MSTORE PUSH1 0xD PUSH1 0x20 MSTORE PUSH1 0xFF PUSH1 0x7 PUSH1 0x40 PUSH1 0x0 KECCAK256 ADD SLOAD AND PUSH1 0x3 DUP2 LT ISZERO PUSH2 0x56C JUMPI PUSH1 0x20 SWAP1 PUSH1 0x40 MLOAD SWAP1 ISZERO DUP2 MSTORE RETURN JUMPDEST CALLVALUE PUSH2 0x2AC JUMPI PUSH1 0x40 CALLDATASIZE PUSH1 0x3 NOT ADD SLT PUSH2 0x2AC JUMPI PUSH2 0x1C01 PUSH2 0x20FE JUMP JUMPDEST PUSH1 0x24 CALLDATALOAD SWAP1 PUSH2 0x1C0E DUP2 PUSH2 0x27B0 JUMP JUMPDEST DUP3 LT ISZERO PUSH2 0x1C41 JUMPI PUSH1 0x1 DUP1 PUSH1 0xA0 SHL SUB AND PUSH1 0x0 MSTORE PUSH1 0x6 PUSH1 0x20 MSTORE PUSH1 0x40 PUSH1 0x0 KECCAK256 SWAP1 PUSH1 0x0 MSTORE PUSH1 0x20 MSTORE PUSH1 0x20 PUSH1 0x40 PUSH1 0x0 KECCAK256 SLOAD PUSH1 0x40 MLOAD SWAP1 DUP2 MSTORE RETURN JUMPDEST PUSH1 0x40 MLOAD PUSH4 0x295F44F7 PUSH1 0xE2 SHL DUP2 MSTORE PUSH1 0x1 PUSH1 0x1 PUSH1 0xA0 SHL SUB SWAP2 SWAP1 SWAP2 AND PUSH1 0x4 DUP3 ADD MSTORE PUSH1 0x24 DUP2 ADD SWAP2 SWAP1 SWAP2 MSTORE PUSH1 0x44 SWAP1 REVERT JUMPDEST CALLVALUE PUSH2 0x2AC JUMPI PUSH1 0x20 DUP1 PUSH1 0x3 NOT CALLDATASIZE ADD SLT PUSH2 0x2AC JUMPI PUSH1 0x40 MLOAD SWAP2 PUSH1 0x4 CALLDATALOAD PUSH2 0x1C8E DUP5 PUSH2 0x21B3 JUMP JUMPDEST PUSH1 0x60 DUP5 MSTORE PUSH1 0x60 DUP4 DUP6 ADD MSTORE PUSH1 0x0 PUSH1 0x40 DUP6 ADD MSTORE PUSH1 0x0 PUSH1 0x60 DUP6 ADD MSTORE PUSH1 0x0 PUSH1 0x80 DUP6 ADD MSTORE PUSH1 0x0 PUSH1 0xA0 DUP6 ADD MSTORE PUSH1 0x0 PUSH1 0xC0 DUP6 ADD MSTORE PUSH1 0x0 DUP3 DUP6 ADD MSTORE PUSH1 0x0 PUSH2 0x100 DUP1 SWAP6 ADD MSTORE PUSH2 0x1CD7 PUSH1 0xC SLOAD DUP3 LT PUSH2 0x2607 JUMP JUMPDEST PUSH1 0x0 MSTORE PUSH1 0xD DUP3 MSTORE PUSH1 0x40 PUSH1 0x0 KECCAK256 SWAP3 PUSH1 0x40 MLOAD SWAP4 PUSH2 0x1CF1 DUP6 PUSH2 0x21B3 JUMP JUMPDEST PUSH2 0x1CFA DUP2 PUSH2 0x220E JUMP JUMPDEST DUP6 MSTORE PUSH2 0x1D08 PUSH1 0x1 DUP3 ADD PUSH2 0x220E JUMP JUMPDEST SWAP2 DUP5 DUP7 ADD SWAP3 DUP4 MSTORE PUSH1 0x1 DUP1 PUSH1 0xA0 SHL SUB SWAP3 DUP4 PUSH1 0x2 DUP5 ADD SLOAD AND SWAP5 PUSH1 0x40 DUP9 ADD SWAP6 DUP7 MSTORE PUSH1 0x3 DUP5 ADD SLOAD SWAP4 PUSH1 0x60 DUP10 ADD SWAP5 DUP6 MSTORE PUSH1 0x4 DUP2 ADD SLOAD PUSH1 0x80 DUP11 ADD SWAP1 DUP2 MSTORE PUSH1 0x5 DUP3 ADD SLOAD SWAP1 PUSH1 0xA0 DUP12 ADD SWAP2 DUP3 MSTORE PUSH1 0x7 PUSH1 0x6 DUP5 ADD SLOAD SWAP4 PUSH1 0xC0 DUP14 ADD SWAP5 DUP6 MSTORE ADD SLOAD SWAP7 PUSH1 0xFF DUP9 AND SWAP9 DUP6 DUP14 ADD SWAP7 PUSH1 0x3 DUP12 LT ISZERO PUSH2 0x56C JUMPI DUP9 DUP15 DUP15 SWAP13 DUP11 MSTORE ADD SWAP10 PUSH1 0x8 SHR PUSH1 0xFF AND PUSH2 0x1D88 SWAP1 DUP12 PUSH2 0x264A JUMP JUMPDEST PUSH1 0x40 MLOAD SWAP14 DUP15 SWAP14 DUP15 MSTORE MLOAD DUP14 PUSH2 0x120 DUP1 SWAP14 DUP3 ADD MSTORE PUSH2 0x140 ADD PUSH2 0x1DA7 SWAP2 PUSH2 0x20BE JUMP JUMPDEST SWAP1 MLOAD DUP14 DUP3 SUB PUSH1 0x1F NOT ADD PUSH1 0x40 DUP16 ADD MSTORE PUSH2 0x1DBF SWAP2 SWAP1 PUSH2 0x20BE JUMP JUMPDEST SWAP11 MLOAD AND PUSH1 0x60 DUP13 ADD MSTORE MLOAD PUSH1 0x80 DUP12 ADD MSTORE MLOAD PUSH1 0xA0 DUP11 ADD MSTORE MLOAD PUSH1 0xC0 DUP10 ADD MSTORE MLOAD SWAP1 DUP8 ADD MSTORE MLOAD SWAP1 DUP6 ADD PUSH2 0x1DEB SWAP2 PUSH2 0x215F JUMP JUMPDEST MLOAD SWAP1 DUP4 ADD PUSH2 0x3E2 SWAP2 PUSH2 0x216C JUMP JUMPDEST CALLVALUE PUSH2 0x2AC JUMPI PUSH2 0x642 PUSH2 0x1E09 CALLDATASIZE PUSH2 0x212A JUMP JUMPDEST SWAP2 PUSH2 0x2375 JUMP JUMPDEST CALLVALUE PUSH2 0x2AC JUMPI PUSH1 0x0 CALLDATASIZE PUSH1 0x3 NOT ADD SLT PUSH2 0x2AC JUMPI PUSH1 0x20 PUSH1 0x8 SLOAD PUSH1 0x40 MLOAD SWAP1 DUP2 MSTORE RETURN JUMPDEST CALLVALUE PUSH2 0x2AC JUMPI PUSH1 0x0 CALLDATASIZE PUSH1 0x3 NOT ADD SLT PUSH2 0x2AC JUMPI PUSH1 0x20 PUSH1 0x12 SLOAD PUSH1 0x40 MLOAD SWAP1 DUP2 MSTORE RETURN JUMPDEST CALLVALUE PUSH2 0x2AC JUMPI PUSH1 0x0 CALLDATASIZE PUSH1 0x3 NOT ADD SLT PUSH2 0x2AC JUMPI PUSH1 0x20 PUSH1 0x13 SLOAD PUSH1 0x40 MLOAD SWAP1 DUP2 MSTORE RETURN JUMPDEST CALLVALUE PUSH2 0x2AC JUMPI PUSH1 0x40 CALLDATASIZE PUSH1 0x3 NOT ADD SLT PUSH2 0x2AC JUMPI PUSH2 0x1E82 PUSH2 0x20FE JUMP JUMPDEST PUSH1 0x24 CALLDATALOAD PUSH2 0x1E8E DUP2 PUSH2 0x28EA JUMP JUMPDEST CALLER ISZERO ISZERO DUP1 PUSH2 0x1F3D JUMPI JUMPDEST DUP1 PUSH2 0x1F10 JUMPI JUMPDEST PUSH2 0x1EF8 JUMPI PUSH1 0x1 PUSH1 0x1 PUSH1 0xA0 SHL SUB SWAP3 DUP4 AND SWAP3 DUP3 SWAP2 DUP5 SWAP2 AND PUSH32 0x8C5BE1E5EBEC7D5BD14F71427D1E84F3DD0314C0F7B2291E5B200AC8C7C3B925 PUSH1 0x0 DUP1 LOG4 PUSH1 0x0 SWAP1 DUP2 MSTORE PUSH1 0x4 PUSH1 0x20 MSTORE PUSH1 0x40 SWAP1 KECCAK256 DUP1 SLOAD PUSH1 0x1 PUSH1 0x1 PUSH1 0xA0 SHL SUB NOT AND SWAP1 SWAP2 OR SWAP1 SSTORE STOP JUMPDEST PUSH1 0x40 MLOAD PUSH4 0xA9FBF51F PUSH1 0xE0 SHL DUP2 MSTORE CALLER PUSH1 0x4 DUP3 ADD MSTORE PUSH1 0x24 SWAP1 REVERT JUMPDEST POP PUSH1 0x1 DUP1 PUSH1 0xA0 SHL SUB DUP2 AND PUSH1 0x0 MSTORE PUSH1 0x5 PUSH1 0x20 MSTORE PUSH1 0x40 PUSH1 0x0 KECCAK256 CALLER PUSH1 0x0 MSTORE PUSH1 0x20 MSTORE PUSH1 0xFF PUSH1 0x40 PUSH1 0x0 KECCAK256 SLOAD AND ISZERO PUSH2 0x1E9D JUMP JUMPDEST POP PUSH1 0x1 PUSH1 0x1 PUSH1 0xA0 SHL SUB DUP2 AND CALLER EQ ISZERO PUSH2 0x1E97 JUMP JUMPDEST CALLVALUE PUSH2 0x2AC JUMPI PUSH1 0x20 CALLDATASIZE PUSH1 0x3 NOT ADD SLT PUSH2 0x2AC JUMPI PUSH1 0x4 CALLDATALOAD PUSH2 0x1F6D DUP2 PUSH2 0x28EA JUMP JUMPDEST POP PUSH1 0x0 MSTORE PUSH1 0x4 PUSH1 0x20 MSTORE PUSH1 0x20 PUSH1 0x1 DUP1 PUSH1 0xA0 SHL SUB PUSH1 0x40 PUSH1 0x0 KECCAK256 SLOAD AND PUSH1 0x40 MLOAD SWAP1 DUP2 MSTORE RETURN JUMPDEST CALLVALUE PUSH2 0x2AC JUMPI PUSH1 0x0 CALLDATASIZE PUSH1 0x3 NOT ADD SLT PUSH2 0x2AC JUMPI PUSH1 0x40 MLOAD PUSH1 0x0 DUP1 SLOAD SWAP1 DUP3 PUSH2 0x1FB1 DUP4 PUSH2 0x2179 JUMP JUMPDEST SWAP2 DUP3 DUP3 MSTORE PUSH1 0x20 SWAP4 PUSH1 0x1 SWAP1 DUP6 PUSH1 0x1 DUP3 AND SWAP2 DUP3 PUSH1 0x0 EQ PUSH2 0x104F JUMPI POP POP PUSH1 0x1 EQ PUSH2 0x1FDF JUMPI POP PUSH2 0xFDE SWAP3 POP SUB DUP4 PUSH2 0x21EC JUMP JUMPDEST PUSH1 0x0 DUP1 DUP1 MSTORE DUP6 SWAP3 POP SWAP1 PUSH32 0x290DECD9548B62A8D60345A988386FC84BA6BC95484008F6362F93160EF3E563 JUMPDEST DUP6 DUP4 LT PUSH2 0x2021 JUMPI POP POP PUSH2 0xFDE SWAP4 POP DUP3 ADD ADD DUP6 PUSH2 0xFD1 JUMP JUMPDEST DUP1 SLOAD DUP4 DUP10 ADD DUP6 ADD MSTORE DUP8 SWAP5 POP DUP7 SWAP4 SWAP1 SWAP3 ADD SWAP2 DUP2 ADD PUSH2 0x200A JUMP JUMPDEST CALLVALUE PUSH2 0x2AC JUMPI PUSH1 0x20 CALLDATASIZE PUSH1 0x3 NOT ADD SLT PUSH2 0x2AC JUMPI PUSH1 0x4 CALLDATALOAD SWAP1 PUSH4 0xFFFFFFFF PUSH1 0xE0 SHL DUP3 AND DUP1 SWAP3 SUB PUSH2 0x2AC JUMPI PUSH1 0x20 SWAP2 PUSH4 0x780E9D63 PUSH1 0xE0 SHL DUP2 EQ SWAP1 DUP2 ISZERO PUSH2 0x207B JUMPI JUMPDEST POP ISZERO ISZERO DUP2 MSTORE RETURN JUMPDEST PUSH4 0x80AC58CD PUSH1 0xE0 SHL DUP2 EQ SWAP2 POP DUP2 ISZERO PUSH2 0x20AD JUMPI JUMPDEST DUP2 ISZERO PUSH2 0x209C JUMPI JUMPDEST POP DUP4 PUSH2 0x2074 JUMP JUMPDEST PUSH4 0x1FFC9A7 PUSH1 0xE0 SHL EQ SWAP1 POP DUP4 PUSH2 0x2095 JUMP JUMPDEST PUSH4 0x5B5E139F PUSH1 0xE0 SHL DUP2 EQ SWAP2 POP PUSH2 0x208E JUMP JUMPDEST SWAP2 SWAP1 DUP3 MLOAD SWAP3 DUP4 DUP3 MSTORE PUSH1 0x0 JUMPDEST DUP5 DUP2 LT PUSH2 0x20EA JUMPI POP POP DUP3 PUSH1 0x0 PUSH1 0x20 DUP1 SWAP5 SWAP6 DUP5 ADD ADD MSTORE PUSH1 0x1F DUP1 NOT SWAP2 ADD AND ADD ADD SWAP1 JUMP JUMPDEST PUSH1 0x20 DUP2 DUP4 ADD DUP2 ADD MLOAD DUP5 DUP4 ADD DUP3 ADD MSTORE ADD PUSH2 0x20C9 JUMP JUMPDEST PUSH1 0x4 CALLDATALOAD SWAP1 PUSH1 0x1 PUSH1 0x1 PUSH1 0xA0 SHL SUB DUP3 AND DUP3 SUB PUSH2 0x2AC JUMPI JUMP JUMPDEST PUSH1 0x24 CALLDATALOAD SWAP1 PUSH1 0x1 PUSH1 0x1 PUSH1 0xA0 SHL SUB DUP3 AND DUP3 SUB PUSH2 0x2AC JUMPI JUMP JUMPDEST PUSH1 0x60 SWAP1 PUSH1 0x3 NOT ADD SLT PUSH2 0x2AC JUMPI PUSH1 0x1 PUSH1 0x1 PUSH1 0xA0 SHL SUB SWAP1 PUSH1 0x4 CALLDATALOAD DUP3 DUP2 AND DUP2 SUB PUSH2 0x2AC JUMPI SWAP2 PUSH1 0x24 CALLDATALOAD SWAP1 DUP2 AND DUP2 SUB PUSH2 0x2AC JUMPI SWAP1 PUSH1 0x44 CALLDATALOAD SWAP1 JUMP JUMPDEST SWAP1 PUSH1 0x3 DUP3 LT ISZERO PUSH2 0x56C JUMPI MSTORE JUMP JUMPDEST SWAP1 PUSH1 0x4 DUP3 LT ISZERO PUSH2 0x56C JUMPI MSTORE JUMP JUMPDEST SWAP1 PUSH1 0x1 DUP3 DUP2 SHR SWAP3 AND DUP1 ISZERO PUSH2 0x21A9 JUMPI JUMPDEST PUSH1 0x20 DUP4 LT EQ PUSH2 0x2193 JUMPI JUMP JUMPDEST PUSH4 0x4E487B71 PUSH1 0xE0 SHL PUSH1 0x0 MSTORE PUSH1 0x22 PUSH1 0x4 MSTORE PUSH1 0x24 PUSH1 0x0 REVERT JUMPDEST SWAP2 PUSH1 0x7F AND SWAP2 PUSH2 0x2188 JUMP JUMPDEST PUSH2 0x120 DUP2 ADD SWAP1 DUP2 LT PUSH8 0xFFFFFFFFFFFFFFFF DUP3 GT OR PUSH2 0xBF3 JUMPI PUSH1 0x40 MSTORE JUMP JUMPDEST PUSH1 0x20 DUP2 ADD SWAP1 DUP2 LT PUSH8 0xFFFFFFFFFFFFFFFF DUP3 GT OR PUSH2 0xBF3 JUMPI PUSH1 0x40 MSTORE JUMP JUMPDEST SWAP1 PUSH1 0x1F DUP1 NOT SWAP2 ADD AND DUP2 ADD SWAP1 DUP2 LT PUSH8 0xFFFFFFFFFFFFFFFF DUP3 GT OR PUSH2 0xBF3 JUMPI PUSH1 0x40 MSTORE JUMP JUMPDEST SWAP1 PUSH1 0x40 MLOAD SWAP2 DUP3 PUSH1 0x0 DUP3 SLOAD PUSH2 0x2221 DUP2 PUSH2 0x2179 JUMP JUMPDEST SWAP1 DUP2 DUP5 MSTORE PUSH1 0x20 SWAP5 PUSH1 0x1 SWAP2 PUSH1 0x1 DUP2 AND SWAP1 DUP2 PUSH1 0x0 EQ PUSH2 0x2291 JUMPI POP PUSH1 0x1 EQ PUSH2 0x2252 JUMPI JUMPDEST POP POP POP PUSH2 0x2250 SWAP3 POP SUB DUP4 PUSH2 0x21EC JUMP JUMPDEST JUMP JUMPDEST PUSH1 0x0 SWAP1 DUP2 MSTORE DUP6 DUP2 KECCAK256 SWAP6 SWAP4 POP SWAP2 SWAP1 JUMPDEST DUP2 DUP4 LT PUSH2 0x2279 JUMPI POP POP PUSH2 0x2250 SWAP4 POP DUP3 ADD ADD CODESIZE DUP1 DUP1 PUSH2 0x2241 JUMP JUMPDEST DUP6 SLOAD DUP9 DUP5 ADD DUP6 ADD MSTORE SWAP5 DUP6 ADD SWAP5 DUP8 SWAP5 POP SWAP2 DUP4 ADD SWAP2 PUSH2 0x2260 JUMP JUMPDEST SWAP3 POP POP POP PUSH2 0x2250 SWAP5 SWAP3 POP PUSH1 0xFF NOT AND DUP3 DUP5 ADD MSTORE ISZERO ISZERO PUSH1 0x5 SHL DUP3 ADD ADD CODESIZE DUP1 DUP1 PUSH2 0x2241 JUMP JUMPDEST PUSH1 0x24 CALLDATALOAD SWAP1 DUP2 ISZERO ISZERO DUP3 SUB PUSH2 0x2AC JUMPI JUMP JUMPDEST SWAP2 DUP2 PUSH1 0x1F DUP5 ADD SLT ISZERO PUSH2 0x2AC JUMPI DUP3 CALLDATALOAD SWAP2 PUSH8 0xFFFFFFFFFFFFFFFF DUP4 GT PUSH2 0x2AC JUMPI PUSH1 0x20 DUP4 DUP2 DUP7 ADD SWAP6 ADD ADD GT PUSH2 0x2AC JUMPI JUMP JUMPDEST DUP1 SLOAD DUP3 LT ISZERO PUSH2 0x230C JUMPI PUSH1 0x0 MSTORE PUSH1 0x3 PUSH1 0x20 PUSH1 0x0 KECCAK256 SWAP2 MUL ADD SWAP1 PUSH1 0x0 SWAP1 JUMP JUMPDEST PUSH4 0x4E487B71 PUSH1 0xE0 SHL PUSH1 0x0 MSTORE PUSH1 0x32 PUSH1 0x4 MSTORE PUSH1 0x24 PUSH1 0x0 REVERT JUMPDEST PUSH8 0xFFFFFFFFFFFFFFFF DUP2 GT PUSH2 0xBF3 JUMPI PUSH1 0x1F ADD PUSH1 0x1F NOT AND PUSH1 0x20 ADD SWAP1 JUMP JUMPDEST SWAP3 SWAP2 SWAP3 PUSH2 0x234A DUP3 PUSH2 0x2322 JUMP JUMPDEST SWAP2 PUSH2 0x2358 PUSH1 0x40 MLOAD SWAP4 DUP5 PUSH2 0x21EC JUMP JUMPDEST DUP3 SWAP5 DUP2 DUP5 MSTORE DUP2 DUP4 ADD GT PUSH2 0x2AC JUMPI DUP3 DUP2 PUSH1 0x20 SWAP4 DUP5 PUSH1 0x0 SWAP7 ADD CALLDATACOPY ADD ADD MSTORE JUMP JUMPDEST PUSH1 0x1 PUSH1 0x1 PUSH1 0xA0 SHL SUB DUP3 DUP2 AND SWAP4 SWAP2 DUP5 ISZERO PUSH2 0xCC7 JUMPI PUSH1 0x0 SWAP5 DUP4 DUP7 MSTORE PUSH1 0x20 SWAP6 PUSH1 0x2 DUP8 MSTORE PUSH1 0x40 SWAP7 DUP5 DUP9 DUP4 KECCAK256 SLOAD AND SWAP7 CALLER ISZERO ISZERO DUP1 PUSH2 0x2579 JUMPI JUMPDEST POP DUP8 ISZERO DUP1 ISZERO PUSH2 0x2546 JUMPI JUMPDEST DUP5 DUP5 MSTORE PUSH1 0x3 DUP4 MSTORE DUP10 DUP5 KECCAK256 DUP1 SLOAD PUSH1 0x1 ADD SWAP1 SSTORE DUP8 DUP5 MSTORE PUSH1 0x2 DUP4 MSTORE DUP10 DUP5 KECCAK256 DUP1 SLOAD PUSH1 0x1 PUSH1 0x1 PUSH1 0xA0 SHL SUB NOT AND DUP7 OR SWAP1 SSTORE DUP8 DUP6 DUP11 PUSH32 0xDDF252AD1BE2C89B69C2B068FC378DAA952BA7F163C4A11628F55A4DF523B3EF DUP8 DUP1 LOG4 ISZERO PUSH2 0x24DA JUMPI PUSH1 0x8 SLOAD DUP8 DUP5 MSTORE PUSH1 0x9 DUP4 MSTORE DUP1 DUP11 DUP6 KECCAK256 SSTORE PUSH1 0x1 PUSH1 0x40 SHL DUP2 LT ISZERO PUSH2 0x24C6 JUMPI DUP8 PUSH2 0x993 DUP3 PUSH1 0x1 PUSH2 0x2438 SWAP5 ADD PUSH1 0x8 SSTORE PUSH2 0x2686 JUMP JUMPDEST DUP4 DUP9 SUB PUSH2 0x2474 JUMPI JUMPDEST POP POP POP POP AND SWAP3 DUP4 DUP4 SUB PUSH2 0x2453 JUMPI POP POP POP POP JUMP JUMPDEST PUSH1 0x64 SWAP5 POP MLOAD SWAP3 PUSH4 0x64283D7B PUSH1 0xE0 SHL DUP5 MSTORE PUSH1 0x4 DUP5 ADD MSTORE PUSH1 0x24 DUP4 ADD MSTORE PUSH1 0x44 DUP3 ADD MSTORE REVERT JUMPDEST PUSH2 0x247D SWAP1 PUSH2 0x27B0 JUMP JUMPDEST PUSH1 0x0 NOT DUP2 ADD SWAP4 SWAP1 DUP5 GT PUSH2 0x24B2 JUMPI DUP3 SWAP2 PUSH1 0x7 SWAP2 DUP11 SWAP5 MSTORE PUSH1 0x6 DUP2 MSTORE DUP4 DUP4 KECCAK256 DUP6 DUP5 MSTORE DUP2 MSTORE DUP8 DUP5 DUP5 KECCAK256 SSTORE DUP8 DUP4 MSTORE MSTORE KECCAK256 SSTORE CODESIZE DUP1 DUP1 DUP1 PUSH2 0x2440 JUMP JUMPDEST PUSH4 0x4E487B71 PUSH1 0xE0 SHL DUP4 MSTORE PUSH1 0x11 PUSH1 0x4 MSTORE PUSH1 0x24 DUP4 REVERT JUMPDEST PUSH4 0x4E487B71 PUSH1 0xE0 SHL DUP5 MSTORE PUSH1 0x41 PUSH1 0x4 MSTORE PUSH1 0x24 DUP5 REVERT JUMPDEST DUP8 DUP5 EQ PUSH2 0x2438 JUMPI PUSH2 0x24EA DUP9 PUSH2 0x27B0 JUMP JUMPDEST DUP8 DUP5 MSTORE PUSH1 0x7 DUP4 MSTORE DUP10 DUP5 KECCAK256 SLOAD SWAP1 DUP10 DUP6 MSTORE PUSH1 0x6 DUP5 MSTORE DUP11 DUP6 KECCAK256 SWAP2 DUP2 DUP2 SUB PUSH2 0x2524 JUMPI JUMPDEST POP DUP9 DUP6 MSTORE PUSH1 0x7 DUP5 MSTORE DUP5 DUP12 DUP2 KECCAK256 SSTORE DUP5 MSTORE DUP3 MSTORE DUP3 DUP10 DUP2 KECCAK256 SSTORE PUSH2 0x2438 JUMP JUMPDEST DUP2 DUP7 MSTORE DUP3 DUP6 MSTORE DUP12 DUP7 KECCAK256 SLOAD DUP2 DUP8 MSTORE DUP1 DUP14 DUP9 KECCAK256 SSTORE DUP7 MSTORE PUSH1 0x7 DUP6 MSTORE DUP12 DUP7 KECCAK256 SSTORE CODESIZE PUSH2 0x2509 JUMP JUMPDEST PUSH1 0x0 DUP9 DUP2 MSTORE PUSH1 0x4 PUSH1 0x20 MSTORE PUSH1 0x40 SWAP1 KECCAK256 DUP1 SLOAD PUSH1 0x1 PUSH1 0x1 PUSH1 0xA0 SHL SUB NOT AND SWAP1 SSTORE DUP9 DUP5 MSTORE PUSH1 0x3 DUP4 MSTORE DUP10 DUP5 KECCAK256 DUP1 SLOAD PUSH1 0x0 NOT ADD SWAP1 SSTORE PUSH2 0x23B2 JUMP JUMPDEST DUP1 PUSH2 0x25C6 JUMPI JUMPDEST ISZERO PUSH2 0x258A JUMPI CODESIZE PUSH2 0x23A8 JUMP JUMPDEST DUP9 DUP8 DUP10 PUSH2 0x25A7 JUMPI PUSH1 0x24 SWAP2 MLOAD SWAP1 PUSH4 0x7E273289 PUSH1 0xE0 SHL DUP3 MSTORE PUSH1 0x4 DUP3 ADD MSTORE REVERT JUMPDEST SWAP1 MLOAD PUSH4 0x177E802F PUSH1 0xE0 SHL DUP2 MSTORE CALLER PUSH1 0x4 DUP3 ADD MSTORE PUSH1 0x24 DUP2 ADD SWAP2 SWAP1 SWAP2 MSTORE PUSH1 0x44 SWAP1 REVERT JUMPDEST POP CALLER DUP9 EQ DUP1 ISZERO PUSH2 0x25EB JUMPI JUMPDEST DUP1 PUSH2 0x257F JUMPI POP DUP7 DUP4 MSTORE PUSH1 0x4 DUP3 MSTORE CALLER DUP7 DUP11 DUP6 KECCAK256 SLOAD AND EQ PUSH2 0x257F JUMP JUMPDEST POP DUP8 DUP4 MSTORE PUSH1 0x5 DUP3 MSTORE DUP9 DUP4 KECCAK256 CALLER DUP5 MSTORE DUP3 MSTORE PUSH1 0xFF DUP10 DUP5 KECCAK256 SLOAD AND PUSH2 0x25D1 JUMP JUMPDEST ISZERO PUSH2 0x260E JUMPI JUMP JUMPDEST PUSH1 0x40 MLOAD PUSH3 0x461BCD PUSH1 0xE5 SHL DUP2 MSTORE PUSH1 0x20 PUSH1 0x4 DUP3 ADD MSTORE PUSH1 0x14 PUSH1 0x24 DUP3 ADD MSTORE PUSH20 0x1059D95B9D08191BD95CC81B9BDD08195E1A5CDD PUSH1 0x62 SHL PUSH1 0x44 DUP3 ADD MSTORE PUSH1 0x64 SWAP1 REVERT JUMPDEST PUSH1 0x4 DUP3 LT ISZERO PUSH2 0x56C JUMPI MSTORE JUMP JUMPDEST RETURNDATASIZE ISZERO PUSH2 0x2681 JUMPI RETURNDATASIZE SWAP1 PUSH2 0x2667 DUP3 PUSH2 0x2322 JUMP JUMPDEST SWAP2 PUSH2 0x2675 PUSH1 0x40 MLOAD SWAP4 DUP5 PUSH2 0x21EC JUMP JUMPDEST DUP3 MSTORE RETURNDATASIZE PUSH1 0x0 PUSH1 0x20 DUP5 ADD RETURNDATACOPY JUMP JUMPDEST PUSH1 0x60 SWAP1 JUMP JUMPDEST PUSH1 0x8 SLOAD DUP2 LT ISZERO PUSH2 0x230C JUMPI PUSH1 0x8 PUSH1 0x0 MSTORE PUSH32 0xF3F7A9FE364FAAB93B216DA50A3214154F22A0A2B415B23A84C8169E8B636EE3 ADD SWAP1 PUSH1 0x0 SWAP1 JUMP JUMPDEST SWAP1 PUSH1 0x4 DUP2 LT ISZERO PUSH2 0x56C JUMPI PUSH2 0xFF00 DUP3 SLOAD SWAP2 PUSH1 0x8 SHL AND SWAP1 PUSH2 0xFF00 NOT AND OR SWAP1 SSTORE JUMP JUMPDEST PUSH1 0x0 NOT DUP2 EQ PUSH2 0xA8A JUMPI PUSH1 0x1 ADD SWAP1 JUMP JUMPDEST SWAP2 SWAP1 DUP3 ADD DUP1 SWAP3 GT PUSH2 0xA8A JUMPI JUMP JUMPDEST SWAP1 PUSH1 0x1F DUP2 GT PUSH2 0x2706 JUMPI POP POP POP JUMP JUMPDEST PUSH1 0x0 SWAP2 PUSH1 0x0 MSTORE PUSH1 0x20 PUSH1 0x0 KECCAK256 SWAP1 PUSH1 0x20 PUSH1 0x1F DUP6 ADD PUSH1 0x5 SHR DUP4 ADD SWAP5 LT PUSH2 0x2744 JUMPI JUMPDEST PUSH1 0x1F ADD PUSH1 0x5 SHR ADD SWAP2 JUMPDEST DUP3 DUP2 LT PUSH2 0x2739 JUMPI POP POP POP JUMP JUMPDEST DUP2 DUP2 SSTORE PUSH1 0x1 ADD PUSH2 0x272D JUMP JUMPDEST SWAP1 SWAP3 POP DUP3 SWAP1 PUSH2 0x2724 JUMP JUMPDEST ISZERO PUSH2 0x2755 JUMPI JUMP JUMPDEST PUSH1 0x40 MLOAD PUSH3 0x461BCD PUSH1 0xE5 SHL DUP2 MSTORE PUSH1 0x20 PUSH1 0x4 DUP3 ADD MSTORE PUSH1 0x12 PUSH1 0x24 DUP3 ADD MSTORE PUSH18 0x2737BA1030B3B2B73A1037B832B930BA37B9 PUSH1 0x71 SHL PUSH1 0x44 DUP3 ADD MSTORE PUSH1 0x64 SWAP1 REVERT JUMPDEST SWAP1 DUP1 PUSH1 0x20 SWAP4 SWAP3 DUP2 DUP5 MSTORE DUP5 DUP5 ADD CALLDATACOPY PUSH1 0x0 DUP3 DUP3 ADD DUP5 ADD MSTORE PUSH1 0x1F ADD PUSH1 0x1F NOT AND ADD ADD SWAP1 JUMP JUMPDEST PUSH1 0x1 PUSH1 0x1 PUSH1 0xA0 SHL SUB AND DUP1 ISZERO PUSH2 0x27D0 JUMPI PUSH1 0x0 MSTORE PUSH1 0x3 PUSH1 0x20 MSTORE PUSH1 0x40 PUSH1 0x0 KECCAK256 SLOAD SWAP1 JUMP JUMPDEST PUSH1 0x40 MLOAD PUSH4 0x22718AD9 PUSH1 0xE2 SHL DUP2 MSTORE PUSH1 0x0 PUSH1 0x4 DUP3 ADD MSTORE PUSH1 0x24 SWAP1 REVERT JUMPDEST DUP2 ISZERO PUSH2 0x27F3 JUMPI DIV SWAP1 JUMP JUMPDEST PUSH4 0x4E487B71 PUSH1 0xE0 SHL PUSH1 0x0 MSTORE PUSH1 0x12 PUSH1 0x4 MSTORE PUSH1 0x24 PUSH1 0x0 REVERT JUMPDEST PUSH1 0x0 MSTORE PUSH1 0xD PUSH1 0x20 MSTORE PUSH1 0x40 PUSH1 0x0 KECCAK256 PUSH1 0x4 DUP2 ADD SLOAD SWAP1 DUP2 ISZERO PUSH2 0x2847 JUMPI PUSH1 0x5 ADD SLOAD SWAP1 PUSH2 0x2710 SWAP2 DUP3 DUP2 MUL SWAP3 DUP2 DUP5 DIV EQ SWAP1 ISZERO OR ISZERO PUSH2 0xA8A JUMPI PUSH2 0x2844 SWAP2 PUSH2 0x27E9 JUMP JUMPDEST SWAP1 JUMP JUMPDEST POP POP PUSH1 0x0 SWAP1 JUMP JUMPDEST SWAP1 PUSH1 0x3 DUP2 LT ISZERO PUSH2 0x56C JUMPI PUSH1 0xFF DUP1 NOT DUP4 SLOAD AND SWAP2 AND OR SWAP1 SSTORE JUMP JUMPDEST SWAP1 PUSH1 0x0 SWAP2 DUP3 MSTORE PUSH1 0xE PUSH1 0x20 MSTORE PUSH1 0x40 DUP3 KECCAK256 DUP1 SLOAD SWAP1 DUP2 ISZERO PUSH2 0x28E6 JUMPI DUP4 SWAP1 DUP5 SWAP1 JUMPDEST DUP4 DUP3 LT PUSH2 0x28BE JUMPI POP POP PUSH1 0x64 DUP2 MUL SWAP1 DUP1 DUP3 DIV PUSH1 0x64 EQ SWAP1 ISZERO OR ISZERO PUSH2 0x28AA JUMPI PUSH2 0x2844 SWAP3 SWAP4 POP PUSH2 0x27E9 JUMP JUMPDEST PUSH4 0x4E487B71 PUSH1 0xE0 SHL DUP5 MSTORE PUSH1 0x11 PUSH1 0x4 MSTORE PUSH1 0x24 DUP5 REVERT JUMPDEST SWAP1 SWAP2 PUSH2 0x28DE PUSH1 0x1 SWAP2 PUSH1 0xFF PUSH2 0x28D2 DUP7 DUP7 PUSH2 0x22F0 JUMP JUMPDEST POP SLOAD PUSH1 0xA0 SHR AND SWAP1 PUSH2 0x26EB JUMP JUMPDEST SWAP3 ADD SWAP1 PUSH2 0x2883 JUMP JUMPDEST POP POP JUMP JUMPDEST PUSH1 0x0 DUP2 DUP2 MSTORE PUSH1 0x2 PUSH1 0x20 MSTORE PUSH1 0x40 SWAP1 KECCAK256 SLOAD PUSH1 0x1 PUSH1 0x1 PUSH1 0xA0 SHL SUB AND SWAP1 DUP2 ISZERO PUSH2 0x290D JUMPI POP SWAP1 JUMP JUMPDEST PUSH1 0x24 SWAP1 PUSH1 0x40 MLOAD SWAP1 PUSH4 0x7E273289 PUSH1 0xE0 SHL DUP3 MSTORE PUSH1 0x4 DUP3 ADD MSTORE REVERT JUMPDEST PUSH1 0xA SLOAD PUSH1 0x1 PUSH1 0x1 PUSH1 0xA0 SHL SUB AND CALLER SUB PUSH2 0x2939 JUMPI JUMP JUMPDEST PUSH1 0x40 MLOAD PUSH4 0x118CDAA7 PUSH1 0xE0 SHL DUP2 MSTORE CALLER PUSH1 0x4 DUP3 ADD MSTORE PUSH1 0x24 SWAP1 REVERT JUMPDEST SWAP3 SWAP4 DUP3 EXTCODESIZE PUSH2 0x2961 JUMPI JUMPDEST POP POP POP POP POP JUMP JUMPDEST PUSH2 0x29A5 SWAP1 PUSH1 0x1 DUP1 PUSH1 0xA0 SHL SUB DUP1 SWAP5 AND SWAP6 PUSH1 0x40 MLOAD SWAP5 DUP6 SWAP5 DUP2 PUSH4 0xA85BD01 PUSH1 0xE1 SHL SWAP9 DUP10 DUP9 MSTORE AND PUSH1 0x4 DUP8 ADD MSTORE AND PUSH1 0x24 DUP6 ADD MSTORE PUSH1 0x44 DUP5 ADD MSTORE PUSH1 0x80 PUSH1 0x64 DUP5 ADD MSTORE PUSH1 0x84 DUP4 ADD SWAP1 PUSH2 0x20BE JUMP JUMPDEST SUB SWAP1 PUSH1 0x20 DUP2 PUSH1 0x0 SWAP4 DUP2 DUP6 DUP9 GAS CALL SWAP1 DUP3 SWAP1 DUP3 PUSH2 0x2A25 JUMPI JUMPDEST POP POP PUSH2 0x29F3 JUMPI DUP3 PUSH2 0x29CA PUSH2 0x2656 JUMP JUMPDEST DUP1 MLOAD SWAP2 SWAP1 DUP3 PUSH2 0x29EC JUMPI PUSH1 0x40 MLOAD PUSH4 0x32505749 PUSH1 0xE1 SHL DUP2 MSTORE PUSH1 0x4 DUP2 ADD DUP4 SWAP1 MSTORE PUSH1 0x24 SWAP1 REVERT JUMPDEST PUSH1 0x20 SWAP2 POP ADD REVERT JUMPDEST PUSH1 0x1 PUSH1 0x1 PUSH1 0xE0 SHL SUB NOT AND SUB PUSH2 0x2A0D JUMPI POP CODESIZE DUP1 DUP1 DUP1 DUP1 PUSH2 0x295A JUMP JUMPDEST PUSH1 0x24 SWAP1 PUSH1 0x40 MLOAD SWAP1 PUSH4 0x32505749 PUSH1 0xE1 SHL DUP3 MSTORE PUSH1 0x4 DUP3 ADD MSTORE REVERT JUMPDEST SWAP1 SWAP2 SWAP3 POP PUSH1 0x20 DUP2 RETURNDATASIZE PUSH1 0x20 GT PUSH2 0x2A6D JUMPI JUMPDEST DUP2 PUSH2 0x2A42 PUSH1 0x20 SWAP4 DUP4 PUSH2 0x21EC JUMP JUMPDEST DUP2 ADD SUB SLT PUSH2 0x2A69 JUMPI MLOAD SWAP1 PUSH1 0x1 PUSH1 0x1 PUSH1 0xE0 SHL SUB NOT DUP3 AND DUP3 SUB PUSH2 0x2A66 JUMPI POP SWAP1 CODESIZE DUP1 PUSH2 0x29BB JUMP JUMPDEST DUP1 REVERT JUMPDEST POP DUP1 REVERT JUMPDEST RETURNDATASIZE SWAP2 POP PUSH2 0x2A35 JUMP INVALID LOG2 PUSH5 0x6970667358 0x22 SLT KECCAK256 0xD5 MCOPY PUSH5 0x68EF5D07E 0xD SSTORE 0xEF 0xE3 RETURNDATASIZE 0xB2 CODECOPY BALANCE LOG3 MOD JUMPI RETURN PUSH26 0x918682E66AD061CFEBD4FB64736F6C6343000818003300000000 "},"methodIdentifiers":{"agents(uint256)":"513856c8","approve(address,uint256)":"095ea7b3","authorizedVaults(address)":"393b8516","balanceOf(address)":"70a08231","getAgent(uint256)":"2de5aaf7","getAgentCount()":"91cab63e","getApproved(uint256)":"081812fc","getReputationCount(uint256)":"7cc0c9bd","getReputationScore(uint256)":"bd5bcb0a","getSuccessRate(uint256)":"8a650841","giveFeedback(uint256,uint8,string)":"655914ab","hasAgent(address)":"4aa11248","isAgentActive(uint256)":"392d2d8e","isApprovedForAll(address,address)":"e985e9c5","maxAgents()":"0a34d637","name()":"06fdde03","operatorToAgent(address)":"7f5b1680","owner()":"8da5cb5b","ownerOf(uint256)":"6352211e","recordAgentAction(uint256,bool,uint256)":"5d0a4782","registerAgent(string,string,uint8)":"a970c8e0","registrationFee()":"14c44e09","renounceOwnership()":"715018a6","reputationLog(uint256,uint256)":"839fae66","safeTransferFrom(address,address,uint256)":"42842e0e","safeTransferFrom(address,address,uint256,bytes)":"b88d4fde","setAgentStatus(uint256,uint8)":"c6fe8e31","setApprovalForAll(address,bool)":"a22cb465","setRegistrationFee(uint256)":"c320c727","setVaultAuthorization(address,bool)":"fee61032","supportsInterface(bytes4)":"01ffc9a7","symbol()":"95d89b41","tokenByIndex(uint256)":"4f6ccce7","tokenOfOwnerByIndex(address,uint256)":"2f745c59","tokenURI(uint256)":"c87b56dd","totalSupply()":"18160ddd","transferFrom(address,address,uint256)":"23b872dd","transferOwnership(address)":"f2fde38b","updateAgentURI(uint256,string)":"6b595822","upgradeAgentTier(uint256,uint8)":"521ba2cb","withdrawFees()":"476343ee"}}}}}