{
  "_format": "hh-sol-artifact-1",
  "contractName": "DecisionLogger",
  "sourceName": "contracts/DecisionLogger.sol",
  "abi": [
    {
      "inputs": [],
      "stateMutability": "nonpayable",
      "type": "constructor"
    },
    {
      "inputs": [
        {
          "internalType": "address",
          "name": "owner",
          "type": "address"
        }
      ],
      "name": "OwnableInvalidOwner",
      "type": "error"
    },
    {
      "inputs": [
        {
          "internalType": "address",
          "name": "account",
          "type": "address"
        }
      ],
      "name": "OwnableUnauthorizedAccount",
      "type": "error"
    },
    {
      "anonymous": false,
      "inputs": [
        {
          "indexed": true,
          "internalType": "uint256",
          "name": "decisionId",
          "type": "uint256"
        },
        {
          "indexed": true,
          "internalType": "uint256",
          "name": "agentId",
          "type": "uint256"
        },
        {
          "indexed": true,
          "internalType": "address",
          "name": "targetUser",
          "type": "address"
        },
        {
          "indexed": false,
          "internalType": "enum DecisionLogger.DecisionType",
          "name": "decisionType",
          "type": "uint8"
        },
        {
          "indexed": false,
          "internalType": "enum DecisionLogger.RiskLevel",
          "name": "riskLevel",
          "type": "uint8"
        },
        {
          "indexed": false,
          "internalType": "uint256",
          "name": "confidence",
          "type": "uint256"
        },
        {
          "indexed": false,
          "internalType": "uint256",
          "name": "timestamp",
          "type": "uint256"
        }
      ],
      "name": "DecisionLogged",
      "type": "event"
    },
    {
      "anonymous": false,
      "inputs": [
        {
          "indexed": true,
          "internalType": "address",
          "name": "logger",
          "type": "address"
        },
        {
          "indexed": false,
          "internalType": "bool",
          "name": "authorized",
          "type": "bool"
        }
      ],
      "name": "LoggerAuthorized",
      "type": "event"
    },
    {
      "anonymous": false,
      "inputs": [
        {
          "indexed": true,
          "internalType": "address",
          "name": "previousOwner",
          "type": "address"
        },
        {
          "indexed": true,
          "internalType": "address",
          "name": "newOwner",
          "type": "address"
        }
      ],
      "name": "OwnershipTransferred",
      "type": "event"
    },
    {
      "anonymous": false,
      "inputs": [
        {
          "indexed": true,
          "internalType": "address",
          "name": "user",
          "type": "address"
        },
        {
          "indexed": false,
          "internalType": "enum DecisionLogger.RiskLevel",
          "name": "overallRisk",
          "type": "uint8"
        },
        {
          "indexed": false,
          "internalType": "uint256",
          "name": "timestamp",
          "type": "uint256"
        }
      ],
      "name": "RiskSnapshotUpdated",
      "type": "event"
    },
    {
      "anonymous": false,
      "inputs": [
        {
          "indexed": true,
          "internalType": "uint256",
          "name": "decisionId",
          "type": "uint256"
        },
        {
          "indexed": true,
          "internalType": "uint256",
          "name": "agentId",
          "type": "uint256"
        },
        {
          "indexed": true,
          "internalType": "address",
          "name": "targetUser",
          "type": "address"
        },
        {
          "indexed": false,
          "internalType": "enum DecisionLogger.RiskLevel",
          "name": "severity",
          "type": "uint8"
        },
        {
          "indexed": false,
          "internalType": "bytes32",
          "name": "analysisHash",
          "type": "bytes32"
        }
      ],
      "name": "ThreatDetected",
      "type": "event"
    },
    {
      "inputs": [
        {
          "internalType": "uint256",
          "name": "",
          "type": "uint256"
        },
        {
          "internalType": "uint256",
          "name": "",
          "type": "uint256"
        }
      ],
      "name": "agentDecisions",
      "outputs": [
        {
          "internalType": "uint256",
          "name": "",
          "type": "uint256"
        }
      ],
      "stateMutability": "view",
      "type": "function"
    },
    {
      "inputs": [
        {
          "internalType": "address",
          "name": "",
          "type": "address"
        }
      ],
      "name": "authorizedLoggers",
      "outputs": [
        {
          "internalType": "bool",
          "name": "",
          "type": "bool"
        }
      ],
      "stateMutability": "view",
      "type": "function"
    },
    {
      "inputs": [
        {
          "internalType": "uint256",
          "name": "",
          "type": "uint256"
        }
      ],
      "name": "decisions",
      "outputs": [
        {
          "internalType": "uint256",
          "name": "agentId",
          "type": "uint256"
        },
        {
          "internalType": "address",
          "name": "targetUser",
          "type": "address"
        },
        {
          "internalType": "enum DecisionLogger.DecisionType",
          "name": "decisionType",
          "type": "uint8"
        },
        {
          "internalType": "enum DecisionLogger.RiskLevel",
          "name": "riskLevel",
          "type": "uint8"
        },
        {
          "internalType": "uint256",
          "name": "confidence",
          "type": "uint256"
        },
        {
          "internalType": "bytes32",
          "name": "analysisHash",
          "type": "bytes32"
        },
        {
          "internalType": "bytes32",
          "name": "dataHash",
          "type": "bytes32"
        },
        {
          "internalType": "uint256",
          "name": "timestamp",
          "type": "uint256"
        },
        {
          "internalType": "bool",
          "name": "actionTaken",
          "type": "bool"
        },
        {
          "internalType": "uint256",
          "name": "actionId",
          "type": "uint256"
        }
      ],
      "stateMutability": "view",
      "type": "function"
    },
    {
      "inputs": [
        {
          "internalType": "uint256",
          "name": "agentId",
          "type": "uint256"
        }
      ],
      "name": "getAgentDecisions",
      "outputs": [
        {
          "internalType": "uint256[]",
          "name": "",
          "type": "uint256[]"
        }
      ],
      "stateMutability": "view",
      "type": "function"
    },
    {
      "inputs": [
        {
          "internalType": "uint256",
          "name": "decisionId",
          "type": "uint256"
        }
      ],
      "name": "getDecision",
      "outputs": [
        {
          "components": [
            {
              "internalType": "uint256",
              "name": "agentId",
              "type": "uint256"
            },
            {
              "internalType": "address",
              "name": "targetUser",
              "type": "address"
            },
            {
              "internalType": "enum DecisionLogger.DecisionType",
              "name": "decisionType",
              "type": "uint8"
            },
            {
              "internalType": "enum DecisionLogger.RiskLevel",
              "name": "riskLevel",
              "type": "uint8"
            },
            {
              "internalType": "uint256",
              "name": "confidence",
              "type": "uint256"
            },
            {
              "internalType": "bytes32",
              "name": "analysisHash",
              "type": "bytes32"
            },
            {
              "internalType": "bytes32",
              "name": "dataHash",
              "type": "bytes32"
            },
            {
              "internalType": "uint256",
              "name": "timestamp",
              "type": "uint256"
            },
            {
              "internalType": "bool",
              "name": "actionTaken",
              "type": "bool"
            },
            {
              "internalType": "uint256",
              "name": "actionId",
              "type": "uint256"
            }
          ],
          "internalType": "struct DecisionLogger.Decision",
          "name": "",
          "type": "tuple"
        }
      ],
      "stateMutability": "view",
      "type": "function"
    },
    {
      "inputs": [],
      "name": "getDecisionCount",
      "outputs": [
        {
          "internalType": "uint256",
          "name": "",
          "type": "uint256"
        }
      ],
      "stateMutability": "view",
      "type": "function"
    },
    {
      "inputs": [
        {
          "internalType": "address",
          "name": "user",
          "type": "address"
        }
      ],
      "name": "getLatestRisk",
      "outputs": [
        {
          "components": [
            {
              "internalType": "uint256",
              "name": "timestamp",
              "type": "uint256"
            },
            {
              "internalType": "enum DecisionLogger.RiskLevel",
              "name": "overallRisk",
              "type": "uint8"
            },
            {
              "internalType": "uint256",
              "name": "liquidationRisk",
              "type": "uint256"
            },
            {
              "internalType": "uint256",
              "name": "volatilityScore",
              "type": "uint256"
            },
            {
              "internalType": "uint256",
              "name": "protocolRisk",
              "type": "uint256"
            },
            {
              "internalType": "uint256",
              "name": "smartContractRisk",
              "type": "uint256"
            },
            {
              "internalType": "bytes32",
              "name": "detailsHash",
              "type": "bytes32"
            }
          ],
          "internalType": "struct DecisionLogger.RiskSnapshot",
          "name": "",
          "type": "tuple"
        }
      ],
      "stateMutability": "view",
      "type": "function"
    },
    {
      "inputs": [
        {
          "internalType": "uint256",
          "name": "count",
          "type": "uint256"
        }
      ],
      "name": "getRecentDecisions",
      "outputs": [
        {
          "components": [
            {
              "internalType": "uint256",
              "name": "agentId",
              "type": "uint256"
            },
            {
              "internalType": "address",
              "name": "targetUser",
              "type": "address"
            },
            {
              "internalType": "enum DecisionLogger.DecisionType",
              "name": "decisionType",
              "type": "uint8"
            },
            {
              "internalType": "enum DecisionLogger.RiskLevel",
              "name": "riskLevel",
              "type": "uint8"
            },
            {
              "internalType": "uint256",
              "name": "confidence",
              "type": "uint256"
            },
            {
              "internalType": "bytes32",
              "name": "analysisHash",
              "type": "bytes32"
            },
            {
              "internalType": "bytes32",
              "name": "dataHash",
              "type": "bytes32"
            },
            {
              "internalType": "uint256",
              "name": "timestamp",
              "type": "uint256"
            },
            {
              "internalType": "bool",
              "name": "actionTaken",
              "type": "bool"
            },
            {
              "internalType": "uint256",
              "name": "actionId",
              "type": "uint256"
            }
          ],
          "internalType": "struct DecisionLogger.Decision[]",
          "name": "",
          "type": "tuple[]"
        }
      ],
      "stateMutability": "view",
      "type": "function"
    },
    {
      "inputs": [
        {
          "internalType": "address",
          "name": "user",
          "type": "address"
        }
      ],
      "name": "getRiskHistory",
      "outputs": [
        {
          "components": [
            {
              "internalType": "uint256",
              "name": "timestamp",
              "type": "uint256"
            },
            {
              "internalType": "enum DecisionLogger.RiskLevel",
              "name": "overallRisk",
              "type": "uint8"
            },
            {
              "internalType": "uint256",
              "name": "liquidationRisk",
              "type": "uint256"
            },
            {
              "internalType": "uint256",
              "name": "volatilityScore",
              "type": "uint256"
            },
            {
              "internalType": "uint256",
              "name": "protocolRisk",
              "type": "uint256"
            },
            {
              "internalType": "uint256",
              "name": "smartContractRisk",
              "type": "uint256"
            },
            {
              "internalType": "bytes32",
              "name": "detailsHash",
              "type": "bytes32"
            }
          ],
          "internalType": "struct DecisionLogger.RiskSnapshot[]",
          "name": "",
          "type": "tuple[]"
        }
      ],
      "stateMutability": "view",
      "type": "function"
    },
    {
      "inputs": [
        {
          "internalType": "address",
          "name": "user",
          "type": "address"
        }
      ],
      "name": "getRiskHistoryCount",
      "outputs": [
        {
          "internalType": "uint256",
          "name": "",
          "type": "uint256"
        }
      ],
      "stateMutability": "view",
      "type": "function"
    },
    {
      "inputs": [],
      "name": "getStats",
      "outputs": [
        {
          "internalType": "uint256",
          "name": "_totalDecisions",
          "type": "uint256"
        },
        {
          "internalType": "uint256",
          "name": "_totalThreats",
          "type": "uint256"
        },
        {
          "internalType": "uint256",
          "name": "_totalProtections",
          "type": "uint256"
        }
      ],
      "stateMutability": "view",
      "type": "function"
    },
    {
      "inputs": [
        {
          "internalType": "address",
          "name": "user",
          "type": "address"
        }
      ],
      "name": "getUserDecisions",
      "outputs": [
        {
          "internalType": "uint256[]",
          "name": "",
          "type": "uint256[]"
        }
      ],
      "stateMutability": "view",
      "type": "function"
    },
    {
      "inputs": [
        {
          "internalType": "address",
          "name": "",
          "type": "address"
        }
      ],
      "name": "latestRiskSnapshot",
      "outputs": [
        {
          "internalType": "uint256",
          "name": "timestamp",
          "type": "uint256"
        },
        {
          "internalType": "enum DecisionLogger.RiskLevel",
          "name": "overallRisk",
          "type": "uint8"
        },
        {
          "internalType": "uint256",
          "name": "liquidationRisk",
          "type": "uint256"
        },
        {
          "internalType": "uint256",
          "name": "volatilityScore",
          "type": "uint256"
        },
        {
          "internalType": "uint256",
          "name": "protocolRisk",
          "type": "uint256"
        },
        {
          "internalType": "uint256",
          "name": "smartContractRisk",
          "type": "uint256"
        },
        {
          "internalType": "bytes32",
          "name": "detailsHash",
          "type": "bytes32"
        }
      ],
      "stateMutability": "view",
      "type": "function"
    },
    {
      "inputs": [
        {
          "internalType": "uint256",
          "name": "agentId",
          "type": "uint256"
        },
        {
          "internalType": "address",
          "name": "targetUser",
          "type": "address"
        },
        {
          "internalType": "enum DecisionLogger.DecisionType",
          "name": "decisionType",
          "type": "uint8"
        },
        {
          "internalType": "enum DecisionLogger.RiskLevel",
          "name": "riskLevel",
          "type": "uint8"
        },
        {
          "internalType": "uint256",
          "name": "confidence",
          "type": "uint256"
        },
        {
          "internalType": "bytes32",
          "name": "analysisHash",
          "type": "bytes32"
        },
        {
          "internalType": "bytes32",
          "name": "dataHash",
          "type": "bytes32"
        },
        {
          "internalType": "bool",
          "name": "actionTaken",
          "type": "bool"
        },
        {
          "internalType": "uint256",
          "name": "actionId",
          "type": "uint256"
        }
      ],
      "name": "logDecision",
      "outputs": [
        {
          "internalType": "uint256",
          "name": "decisionId",
          "type": "uint256"
        }
      ],
      "stateMutability": "nonpayable",
      "type": "function"
    },
    {
      "inputs": [],
      "name": "owner",
      "outputs": [
        {
          "internalType": "address",
          "name": "",
          "type": "address"
        }
      ],
      "stateMutability": "view",
      "type": "function"
    },
    {
      "inputs": [],
      "name": "renounceOwnership",
      "outputs": [],
      "stateMutability": "nonpayable",
      "type": "function"
    },
    {
      "inputs": [
        {
          "internalType": "address",
          "name": "",
          "type": "address"
        },
        {
          "internalType": "uint256",
          "name": "",
          "type": "uint256"
        }
      ],
      "name": "riskHistory",
      "outputs": [
        {
          "internalType": "uint256",
          "name": "timestamp",
          "type": "uint256"
        },
        {
          "internalType": "enum DecisionLogger.RiskLevel",
          "name": "overallRisk",
          "type": "uint8"
        },
        {
          "internalType": "uint256",
          "name": "liquidationRisk",
          "type": "uint256"
        },
        {
          "internalType": "uint256",
          "name": "volatilityScore",
          "type": "uint256"
        },
        {
          "internalType": "uint256",
          "name": "protocolRisk",
          "type": "uint256"
        },
        {
          "internalType": "uint256",
          "name": "smartContractRisk",
          "type": "uint256"
        },
        {
          "internalType": "bytes32",
          "name": "detailsHash",
          "type": "bytes32"
        }
      ],
      "stateMutability": "view",
      "type": "function"
    },
    {
      "inputs": [
        {
          "internalType": "address",
          "name": "logger",
          "type": "address"
        },
        {
          "internalType": "bool",
          "name": "authorized",
          "type": "bool"
        }
      ],
      "name": "setLoggerAuthorization",
      "outputs": [],
      "stateMutability": "nonpayable",
      "type": "function"
    },
    {
      "inputs": [],
      "name": "totalProtectionsTriggered",
      "outputs": [
        {
          "internalType": "uint256",
          "name": "",
          "type": "uint256"
        }
      ],
      "stateMutability": "view",
      "type": "function"
    },
    {
      "inputs": [],
      "name": "totalThreatsDetected",
      "outputs": [
        {
          "internalType": "uint256",
          "name": "",
          "type": "uint256"
        }
      ],
      "stateMutability": "view",
      "type": "function"
    },
    {
      "inputs": [
        {
          "internalType": "address",
          "name": "newOwner",
          "type": "address"
        }
      ],
      "name": "transferOwnership",
      "outputs": [],
      "stateMutability": "nonpayable",
      "type": "function"
    },
    {
      "inputs": [
        {
          "internalType": "address",
          "name": "user",
          "type": "address"
        },
        {
          "internalType": "enum DecisionLogger.RiskLevel",
          "name": "overallRisk",
          "type": "uint8"
        },
        {
          "internalType": "uint256",
          "name": "liquidationRisk",
          "type": "uint256"
        },
        {
          "internalType": "uint256",
          "name": "volatilityScore",
          "type": "uint256"
        },
        {
          "internalType": "uint256",
          "name": "protocolRisk",
          "type": "uint256"
        },
        {
          "internalType": "uint256",
          "name": "smartContractRisk",
          "type": "uint256"
        },
        {
          "internalType": "bytes32",
          "name": "detailsHash",
          "type": "bytes32"
        }
      ],
      "name": "updateRiskSnapshot",
      "outputs": [],
      "stateMutability": "nonpayable",
      "type": "function"
    },
    {
      "inputs": [
        {
          "internalType": "address",
          "name": "",
          "type": "address"
        },
        {
          "internalType": "uint256",
          "name": "",
          "type": "uint256"
        }
      ],
      "name": "userDecisions",
      "outputs": [
        {
          "internalType": "uint256",
          "name": "",
          "type": "uint256"
        }
      ],
      "stateMutability": "view",
      "type": "function"
    }
  ],
  "bytecode": "0x6080806040523461007a5733156100645760008054336001600160a01b03198216811783556040519290916001600160a01b0316907f8be0079c531659141344cd1fd0a4f28419497f9722a3daafe3b4186f6b6457e09080a361150290816100808239f35b631e4fbdf760e01b815260006004820152602490fd5b600080fdfe608080604052600436101561001357600080fd5b60003560e01c90816305d7a28c14610f885750806313ce356214610e595780632403c7b714610e3b5780632801e43a14610dfc5780632c64b84614610dde57806332fdea1514610d6557806336649f6a14610ca05780633cb1df2214610c285780634e9cfc22146109b95780635466cd8c1461093c5780637097cdb3146105cf578063715018a614610576578063774aa26a1461051d5780638b08b2b4146104d65780638da5cb5b146104ad57806393138fdf14610444578063a0912ad61461040a578063af7548481461037a578063b829df82146102c4578063c59d484714610295578063e4ff19da14610277578063f2fde38b146101e95763fe4c01c81461011c57600080fd5b346101e4576020806003193601126101e4576001600160a01b0361013e611000565b1660005260058152604060002090815461015781611246565b906101656040519283611224565b8082528282018094600052836000206000915b8383106101c75760408051878152865181890181905289928201908960005b8281106101a45784840385f35b9091928260e0826101b86001948a516110e8565b01960191019492919094610197565b6007866001926101d685611364565b815201920192019190610178565b600080fd5b346101e45760203660031901126101e457610202611000565b61020a6114a0565b6001600160a01b0390811690811561025e57600054826bffffffffffffffffffffffff60a01b821617600055167f8be0079c531659141344cd1fd0a4f28419497f9722a3daafe3b4186f6b6457e0600080a3005b604051631e4fbdf760e01b815260006004820152602490fd5b346101e45760003660031901126101e4576020600154604051908152f35b346101e45760003660031901126101e45760606001546007546008549060405192835260208301526040820152f35b346101e45760203660031901126101e4576004356001548110156101e4576102ee610140916111b1565b5080549060018101549060028101546003820154600483015490600584015492610356600760ff6006880154169601549660405198895260018060a01b03811660208a015261034660408a0160ff8360a01c16611052565b60ff60608a019160a81c1661105f565b608087015260a086015260c085015260e08401521515610100830152610120820152f35b346101e45760203660031901126101e45760043561039661125e565b506001548110156103c5576103b66103b0610140926111b1565b506112d6565b6103c3604051809261106c565bf35b60405162461bcd60e51b815260206004820152601760248201527f4465636973696f6e20646f6573206e6f742065786973740000000000000000006044820152606490fd5b346101e45760203660031901126101e4576001600160a01b0361042b611000565b1660005260056020526020604060002054604051908152f35b346101e45760203660031901126101e4576001600160a01b03610465611000565b166000526004602052604060002080546104a960ff600184015416926002810154906003810154600482015490600660058401549301549360405197889788611163565b0390f35b346101e45760003660031901126101e4576000546040516001600160a01b039091168152602090f35b346101e45760403660031901126101e4576024356004356000526002602052604060002080548210156101e45760209161050f91611199565b90546040519160031b1c8152f35b346101e45760403660031901126101e457610536611000565b6001600160a01b03166000908152600360205260409020805460243591908210156101e45760209161056791611199565b90549060031b1c604051908152f35b346101e45760003660031901126101e45761058f6114a0565b600080546001600160a01b0319811682556001600160a01b03167f8be0079c531659141344cd1fd0a4f28419497f9722a3daafe3b4186f6b6457e08280a3005b346101e4576101203660031901126101e4576024356001600160a01b03811681036101e457600660443510156101e457600560643510156101e45760e4359081151582036101e45733600052600660205261063160ff604060002054166113be565b612710608435116108f7576001549060405161064c81611207565b60043581526001600160a01b038216602082019081526040820194909190610676604435876112be565b6060820190610687606435836112ca565b608435608084015260a43560a084015260c43560c08401524260e0840152151561010083015261010435610120830152600160401b8510156108e157600185016001556106d3856111b1565b9390936108cb578251845551600184015496516001600160a01b0390911692909160068310156108b557519160058310156108b5576020976007946101209460ff60a81b9060a81b169260ff60a01b9060a01b169169ffffffffffffffffffff60b01b1617171760018501556080810151600285015560a0810151600385015560c0810151600485015560e081015160058501556107876101008201511515600686019060ff801983541691151516179055565b0151910155600435600052600283526107a482604060002061145c565b60018060a01b038116600052600383526107c282604060002061145c565b600160443514610855575b600260443514610842575b604051906107e882604435611052565b6107f684830160643561105f565b60843560408301524260608301526001600160a01b0316906004359083907f7ae9d75bd96aaa046d3fa758eaf8d7aeb6579e9e55e73b25c57977bbe1fd3cfc90608090a4604051908152f35b61084d600854611491565b6008556107d8565b610860600754611491565b6007556040516108728160643561105f565b60a435818501526001600160a01b038216906004359084907f088c920555c1991dad718556e7a223265f9c7db12a55541120b7e63dadec89a090604090a46107cd565b634e487b7160e01b600052602160045260246000fd5b634e487b7160e01b600052600060045260246000fd5b634e487b7160e01b600052604160045260246000fd5b60405162461bcd60e51b815260206004820152601760248201527f436f6e666964656e6365206f7574206f662072616e67650000000000000000006044820152606490fd5b346101e45760403660031901126101e457610955611000565b6001600160a01b031660009081526005602052604090208054602435908110156101e45761098291611131565b5080546104a960ff600184015416926002810154906003810154600482015490600660058401549301549360405197889788611163565b346101e45760e03660031901126101e4576109d2611000565b60249081359060058210156101e4576044356064359160843560a435903360005260209460068652610a0b60ff604060002054166113be565b612710808611610be457808211610ba057808311610b64578311610b205760405194610a36866111eb565b428652610a45888888016112ca565b60408601526060850152608084015260a083015260c43560c083015260018060a01b0316938460005260048352610a80826040600020611402565b84600052600583526040600020805490600160401b821015610b0b5790610aac91600182018155611131565b919091610af7575091610ae37fb109fbd49ea3e0721deba78d7e6fe0ea5cf88a4ddafb496678f2223f64a7c7c79492604094611402565b610aef8351809361105f565b4290820152a2005b634e487b7160e01b60005260006004526000fd5b82634e487b7160e01b60005260416004526000fd5b60405162461bcd60e51b815260048101879052601b818a01527f496e76616c696420736d61727420636f6e7472616374207269736b00000000006044820152606490fd5b60405162461bcd60e51b8152600481018890526015818b015274496e76616c69642070726f746f636f6c207269736b60581b6044820152606490fd5b60405162461bcd60e51b8152600481018890526018818b01527f496e76616c696420766f6c6174696c6974792073636f726500000000000000006044820152606490fd5b60405162461bcd60e51b8152600481018890526018818b01527f496e76616c6964206c69717569646174696f6e207269736b00000000000000006044820152606490fd5b346101e45760203660031901126101e457610c41611000565b600060c0604051610c51816111eb565b8281528260208201528260408201528260608201528260808201528260a0820152015260018060a01b0316600052600460205260e0610c936040600020611364565b6103c360405180926110e8565b346101e45760403660031901126101e457610cb9611000565b60243590811515908183036101e457610cd06114a0565b6001600160a01b0316918215610d2f577f22b6051e3fe3d7e80e7f3faed555a11c189701d86c66610612c0d072c895cce391610d26602092856000526006845260406000209060ff801983541691151516179055565b604051908152a2005b60405162461bcd60e51b815260206004820152600e60248201526d24b73b30b634b2103637b3b3b2b960911b6044820152606490fd5b346101e4576020806003193601126101e45760043560005260026020526040600020906040519081602084549182815201936000526020600020916000905b828210610dc7576104a985610dbb81890382611224565b60405191829182611016565b835486529485019460019384019390910190610da4565b346101e45760003660031901126101e4576020600754604051908152f35b346101e45760203660031901126101e4576001600160a01b03610e1d611000565b166000526006602052602060ff604060002054166040519015158152f35b346101e45760003660031901126101e4576020600854604051908152f35b346101e4576020806003193601126101e4576001805490919060043581811115610f80575091825b610e8a81611246565b93610e986040519586611224565b818552610ea482611246565b601f190160005b818110610f6457505060005b828110610f0a57505050604051918083018184528451809152816040850195019160005b828110610ee85785870386f35b909192938261014088610efd849a895161106c565b0197950193929101610edb565b82829694960390828211610f4e57808201809211610f4e57610f2f6103b088936111b1565b610f3982876112aa565b52610f4481866112aa565b5001949294610eb7565b634e487b7160e01b600052601160045260246000fd5b8590610f7197959761125e565b82828801015201959395610eab565b929092610e81565b346101e45760209060206003193601126101e4576001600160a01b03610fac611000565b166000526003602052604060002091825480835260208301936000526020600020916000905b828210610fe9576104a985610dbb81890382611224565b835486529485019460019384019390910190610fd2565b600435906001600160a01b03821682036101e457565b602090602060408183019282815285518094520193019160005b82811061103e575050505090565b835185529381019392810192600101611030565b9060068210156108b55752565b9060058210156108b55752565b805182526020808201516001600160a01b03169083015260408082015161109591840190611052565b6110a76060820151606084019061105f565b6080810151608083015260a081015160a083015260c081015160c083015260e081015160e08301526101008082015115159083015261012080910151910152565b60c08091805184526111026020820151602086019061105f565b60408101516040850152606081015160608501526080810151608085015260a081015160a08501520151910152565b805482101561114d576000526007602060002091020190600090565b634e487b7160e01b600052603260045260246000fd5b93909796959261118160c0969360e087019a8752602087019061105f565b60408501526060840152608083015260a08201520152565b805482101561114d5760005260206000200190600090565b60015481101561114d57600160005260031b7fb10e2d527612073b26eecdfd717e6a320cf44b4afac2b0732d9fcbe2b7fa0cf60190600090565b60e0810190811067ffffffffffffffff8211176108e157604052565b610140810190811067ffffffffffffffff8211176108e157604052565b90601f8019910116810190811067ffffffffffffffff8211176108e157604052565b67ffffffffffffffff81116108e15760051b60200190565b6040519061126b82611207565b816101206000918281528260208201528260408201528260608201528260808201528260a08201528260c08201528260e0820152826101008201520152565b805182101561114d5760209160051b010190565b60068210156108b55752565b60058210156108b55752565b906040516112e381611207565b610120600782948054845261132560ff600183015460018060a01b0381166020880152611318828260a01c16604089016112be565b60a81c16606086016112ca565b60028101546080850152600381015460a0850152600481015460c0850152600581015460e085015260ff60068201541615156101008501520154910152565b90604051611371816111eb565b60c0600682948054845261138f60ff600183015416602086016112ca565b600281015460408501526003810154606085015260048101546080850152600581015460a08501520154910152565b156113c557565b60405162461bcd60e51b81526020600482015260156024820152742737ba1030baba3437b934bd32b2103637b3b3b2b960591b6044820152606490fd5b9080518255600182019060208101519060058210156108b55760069260c09260ff8019835416911617905560408101516002850155606081015160038501556080810151600485015560a081015160058501550151910155565b8054600160401b8110156108e15761147991600182018155611199565b819291549060031b91821b91600019901b1916179055565b6000198114610f4e5760010190565b6000546001600160a01b031633036114b457565b60405163118cdaa760e01b8152336004820152602490fdfea26469706673582212200d4a2e4d8bbba345280143cdaeaac73af96309be71e6a8eccd721729144e116a64736f6c63430008180033",
  "linkReferences": {},
  "deployedLinkReferences": {}
}